{"abi":[{"type":"function","name":"REQUIRED_FLAGS","inputs":[],"outputs":[{"name":"","type":"uint160","internalType":"uint160"}],"stateMutability":"view"}],"bytecode":{"object":"0x60d961004c600b8282823980515f1a6073146040577f4e487b71000000000000000000000000000000000000000000000000000000005f525f60045260245ffd5b305f52607381538281f3fe73000000000000000000000000000000000000000030146080604052600436106032575f3560e01c80638549d9be146036575b5f80fd5b603c6050565b60405160479190608c565b60405180910390f35b6040608061020061080017171781565b5f73ffffffffffffffffffffffffffffffffffffffff82169050919050565b6086816060565b82525050565b5f602082019050609d5f830184607f565b9291505056fea264697066735822122036c0bac1612e25e25d3d9f3f2d589590eac9c9d9c2f8e50a237b9d0104350c0e64736f6c634300081a0033","linkReferences":{}},"methodIdentifiers":{"REQUIRED_FLAGS()":"8549d9be"},"id":91}