{"abi":[{"type":"constructor","inputs":[{"name":"_priceOracle","type":"address","internalType":"contract ChainlinkPriceOracle"}],"stateMutability":"nonpayable"},{"type":"function","name":"addCustomPriceFeed","inputs":[{"name":"token0","type":"address","internalType":"address"},{"name":"token1","type":"address","internalType":"address"},{"name":"priceFeed","type":"address","internalType":"address"}],"outputs":[],"stateMutability":"nonpayable"},{"type":"function","name":"autoConfigureNetwork","inputs":[],"outputs":[],"stateMutability":"nonpayable"},{"type":"function","name":"batchAddPriceFeeds","inputs":[{"name":"configs","type":"tuple[]","internalType":"struct ProductionPriceFeedConfig.PriceFeedConfig[]","components":[{"name":"token0","type":"address","internalType":"address"},{"name":"token1","type":"address","internalType":"address"},{"name":"priceFeed","type":"address","internalType":"address"},{"name":"description","type":"string","internalType":"string"},{"name":"isActive","type":"bool","internalType":"bool"}]}],"outputs":[],"stateMutability":"nonpayable"},{"type":"function","name":"configureArbitrum","inputs":[],"outputs":[],"stateMutability":"nonpayable"},{"type":"function","name":"configureBase","inputs":[],"outputs":[],"stateMutability":"nonpayable"},{"type":"function","name":"configureMainnet","inputs":[],"outputs":[],"stateMutability":"nonpayable"},{"type":"function","name":"configureSepolia","inputs":[],"outputs":[],"stateMutability":"nonpayable"},{"type":"function","name":"emergencyReconfigure","inputs":[],"outputs":[],"stateMutability":"nonpayable"},{"type":"function","name":"getCurrentNetworkName","inputs":[],"outputs":[{"name":"","type":"string","internalType":"string"}],"stateMutability":"view"},{"type":"function","name":"isCurrentNetworkConfigured","inputs":[],"outputs":[{"name":"","type":"bool","internalType":"bool"}],"stateMutability":"view"},{"type":"function","name":"networkConfigured","inputs":[{"name":"","type":"uint256","internalType":"uint256"}],"outputs":[{"name":"","type":"bool","internalType":"bool"}],"stateMutability":"view"},{"type":"function","name":"owner","inputs":[],"outputs":[{"name":"","type":"address","internalType":"address"}],"stateMutability":"view"},{"type":"function","name":"priceOracle","inputs":[],"outputs":[{"name":"","type":"address","internalType":"contract ChainlinkPriceOracle"}],"stateMutability":"view"},{"type":"function","name":"removePriceFeed","inputs":[{"name":"token0","type":"address","internalType":"address"},{"name":"token1","type":"address","internalType":"address"}],"outputs":[],"stateMutability":"nonpayable"},{"type":"function","name":"renounceOwnership","inputs":[],"outputs":[],"stateMutability":"nonpayable"},{"type":"function","name":"transferOwnership","inputs":[{"name":"newOwner","type":"address","internalType":"address"}],"outputs":[],"stateMutability":"nonpayable"},{"type":"event","name":"NetworkConfigured","inputs":[{"name":"chainId","type":"uint256","indexed":true,"internalType":"uint256"},{"name":"feedCount","type":"uint256","indexed":false,"internalType":"uint256"}],"anonymous":false},{"type":"event","name":"OwnershipTransferred","inputs":[{"name":"previousOwner","type":"address","indexed":true,"internalType":"address"},{"name":"newOwner","type":"address","indexed":true,"internalType":"address"}],"anonymous":false},{"type":"event","name":"PriceFeedAdded","inputs":[{"name":"token0","type":"address","indexed":true,"internalType":"address"},{"name":"token1","type":"address","indexed":true,"internalType":"address"},{"name":"priceFeed","type":"address","indexed":false,"internalType":"address"}],"anonymous":false},{"type":"event","name":"PriceFeedRemoved","inputs":[{"name":"token0","type":"address","indexed":true,"internalType":"address"},{"name":"token1","type":"address","indexed":true,"internalType":"address"}],"anonymous":false},{"type":"error","name":"OwnableInvalidOwner","inputs":[{"name":"owner","type":"address","internalType":"address"}]},{"type":"error","name":"OwnableUnauthorizedAccount","inputs":[{"name":"account","type":"address","internalType":"address"}]}],"bytecode":{"object":"0x60a060405234801561000f575f80fd5b5060405161216e38038061216e8339818101604052810190610031919061021c565b335f73ffffffffffffffffffffffffffffffffffffffff168173ffffffffffffffffffffffffffffffffffffffff16036100a2575f6040517f1e4fbdf70000000000000000000000000000000000000000000000000000000081526004016100999190610256565b60405180910390fd5b6100b1816100ec60201b60201c565b508073ffffffffffffffffffffffffffffffffffffffff1660808173ffffffffffffffffffffffffffffffffffffffff16815250505061026f565b5f805f9054906101000a900473ffffffffffffffffffffffffffffffffffffffff169050815f806101000a81548173ffffffffffffffffffffffffffffffffffffffff021916908373ffffffffffffffffffffffffffffffffffffffff1602179055508173ffffffffffffffffffffffffffffffffffffffff168173ffffffffffffffffffffffffffffffffffffffff167f8be0079c531659141344cd1fd0a4f28419497f9722a3daafe3b4186f6b6457e060405160405180910390a35050565b5f80fd5b5f73ffffffffffffffffffffffffffffffffffffffff82169050919050565b5f6101da826101b1565b9050919050565b5f6101eb826101d0565b9050919050565b6101fb816101e1565b8114610205575f80fd5b50565b5f81519050610216816101f2565b92915050565b5f60208284031215610231576102306101ad565b5b5f61023e84828501610208565b91505092915050565b610250816101d0565b82525050565b5f6020820190506102695f830184610247565b92915050565b608051611ed261029c5f395f81816102a3015281816105b8015281816111b8015261140b0152611ed25ff3fe608060405234801561000f575f80fd5b50600436106100fe575f3560e01c80637e857f9b116100955780638da5cb5b116100645780638da5cb5b146102125780639b21115514610230578063e5c577ed1461023a578063f2fde38b14610244576100fe565b80637e857f9b146101c45780637ea85a05146101e057806381faaa96146101fe578063881e9e8514610208576100fe565b80633743e1db116100d15780633743e1db1461018a5780635e41a282146101945780635f952967146101b0578063715018a6146101ba576100fe565b806303807a9e146101025780631dc2b189146101325780632630c12f1461015057806333cf226c1461016e575b5f80fd5b61011c6004803603810190610117919061154a565b610260565b604051610129919061158f565b60405180910390f35b61013a61027d565b604051610147919061158f565b60405180910390f35b6101586102a1565b6040516101659190611622565b60405180910390f35b61018860048036038101906101839190611676565b6102c5565b005b610192610313565b005b6101ae60048036038101906101a991906116c6565b6105ae565b005b6101b861069c565b005b6101c26106d6565b005b6101de60048036038101906101d99190611765565b6106e9565b005b6101e861075d565b6040516101f59190611820565b60405180910390f35b610206610903565b005b610210610c1f565b005b61021a610e4a565b604051610227919061184f565b60405180910390f35b610238610e71565b005b610242611099565b005b61025e60048036038101906102599190611868565b6110ab565b005b6001602052805f5260405f205f915054906101000a900460ff1681565b5f60015f4681526020019081526020015f205f9054906101000a900460ff16905090565b7f000000000000000000000000000000000000000000000000000000000000000081565b6102cd61112f565b61030e8383836040518060400160405280600681526020017f437573746f6d00000000000000000000000000000000000000000000000000008152506111b6565b505050565b61031b61112f565b60015f61a4b181526020019081526020015f205f9054906101000a900460ff161561037b576040517f08c379a0000000000000000000000000000000000000000000000000000000008152600401610372906118dd565b60405180910390fd5b5f7382af49447d8a07e3bd95bd0d56f35241523fbab190505f73af88d065e77c8cc2239327c5edb3a432268e583190505f73912ce59144191c1204e64559fe8253a0e49e654890505f73da10009cbd5d07dd0cecc66161fc93d7c9000da190505f73639fe6ab55c921f74e7fac1ee960c0b6293ba61290505f7350834f3163758fcc1df9973b6e91f0f0f0434ad390505f73b2a824043730fe05f3da2efafa1cbbe83fa548d690505f73c5c8e77b397e531b8ec06bfb0048328b30e9ecfb905061047c8888866040518060400160405280601281526020017f4554482f5553442028417262697472756d2900000000000000000000000000008152506111b6565b6104bd8688846040518060400160405280601281526020017f4152422f5553442028417262697472756d2900000000000000000000000000008152506111b6565b6104fe8786856040518060400160405280601381526020017f555344432f5553442028417262697472756d29000000000000000000000000008152506111b6565b61053f8588836040518060400160405280601281526020017f4441492f5553442028417262697472756d2900000000000000000000000000008152506111b6565b6001805f61a4b181526020019081526020015f205f6101000a81548160ff02191690831515021790555061a4b17f8f22da452c6c8505b1bc8887b4fd0722a07616b5e16c5d0a09aa71b8722cccbe600460405161059c9190611934565b60405180910390a25050505050505050565b6105b661112f565b7f000000000000000000000000000000000000000000000000000000000000000073ffffffffffffffffffffffffffffffffffffffff16635e41a28283836040518363ffffffff1660e01b815260040161061192919061196d565b5f604051808303815f87803b158015610628575f80fd5b505af115801561063a573d5f803e3d5ffd5b505050508073ffffffffffffffffffffffffffffffffffffffff168273ffffffffffffffffffffffffffffffffffffffff167fac49089020c52dc09b25997730450c4b6b62a7637a33c7ee7d4a3b9bbafb73e960405160405180910390a35050565b6106a461112f565b5f60015f4681526020019081526020015f205f6101000a81548160ff0219169083151502179055506106d46112ab565b565b6106de61112f565b6106e75f611348565b565b6106f161112f565b5f5b82829050811015610758575f83838381811061071257610711611994565b5b905060200281019061072491906119c5565b61072d90611beb565b905061074a815f01518260200151836040015184606001516111b6565b5080806001019150506106f3565b505050565b60605f469050600181036107a9576040518060400160405280601081526020017f457468657265756d204d61696e6e657400000000000000000000000000000000815250915050610900565b62aa36a781036107f1576040518060400160405280600f81526020017f5365706f6c696120546573746e65740000000000000000000000000000000000815250915050610900565b6121058103610838576040518060400160405280600481526020017f4261736500000000000000000000000000000000000000000000000000000000815250915050610900565b61a4b1810361087f576040518060400160405280600c81526020017f417262697472756d204f6e650000000000000000000000000000000000000000815250915050610900565b617a6981036108c6576040518060400160405280600981526020017f4c6f63616c686f73740000000000000000000000000000000000000000000000815250915050610900565b6040518060400160405280600f81526020017f556e6b6e6f776e204e6574776f726b00000000000000000000000000000000008152509150505b90565b61090b61112f565b60015f600181526020019081526020015f205f9054906101000a900460ff161561096a576040517f08c379a000000000000000000000000000000000000000000000000000000000815260040161096190611c47565b60405180910390fd5b5f73c02aaa39b223fe8d0a0e5c4f27ead9083c756cc290505f73a0b86a33e6441c4c27d3f50c9d6d14bdf12f4e6e90505f736b175474e89094c44da98b954eedeac495271d0f90505f732260fac5e5542a773aa44fbcfedf7c193bc2c59990505f735f4ec3df9cbd43714fe2740f5e3616155c5b841990505f73f4030086522a5beea4988f8ca5b36dbc97bee88c90505f738fffffd4afb6115b954bd326cbe7b4ba576818f690505f73aed0c38402a5d19df6e4c03f4e2dced6e29c1ee99050610a6b8888866040518060400160405280600781526020017f4554482f555344000000000000000000000000000000000000000000000000008152506111b6565b610aac8588856040518060400160405280600781526020017f4254432f555344000000000000000000000000000000000000000000000000008152506111b6565b610aed8787846040518060400160405280600881526020017f555344432f5553440000000000000000000000000000000000000000000000008152506111b6565b610b2e8688836040518060400160405280600781526020017f4441492f555344000000000000000000000000000000000000000000000000008152506111b6565b610b70888686866040518060400160405280600781526020017f4554482f42544300000000000000000000000000000000000000000000000000815250611409565b610bb2888786846040518060400160405280600781526020017f4554482f44414900000000000000000000000000000000000000000000000000815250611409565b6001805f600181526020019081526020015f205f6101000a81548160ff02191690831515021790555060017f8f22da452c6c8505b1bc8887b4fd0722a07616b5e16c5d0a09aa71b8722cccbe6006604051610c0d9190611c9e565b60405180910390a25050505050505050565b610c2761112f565b60015f62aa36a781526020019081526020015f205f9054906101000a900460ff1615610c88576040517f08c379a0000000000000000000000000000000000000000000000000000000008152600401610c7f90611d01565b60405180910390fd5b5f73fff9976782d46cc05630d1f6ebab18b2324d6b1490505f731c7d4b196cb0c7b01d743fbc6116a902379c723890505f73779877a7b0d9e8603169ddbd7836e478b462478990505f73694aa1769357215de4fac081bf1f309adc32530690505f73c59e3633baac79493d908e63626716e204a45edf90505f73a2f78ab2355fe2f984d808b5cee7fd0a93d5270e9050610d598686856040518060400160405280601181526020017f4554482f55534420285365706f6c6961290000000000000000000000000000008152506111b6565b610d9a8486846040518060400160405280601281526020017f4c494e4b2f55534420285365706f6c69612900000000000000000000000000008152506111b6565b610ddb8587836040518060400160405280601281526020017f555344432f55534420285365706f6c69612900000000000000000000000000008152506111b6565b6001805f62aa36a781526020019081526020015f205f6101000a81548160ff02191690831515021790555062aa36a77f8f22da452c6c8505b1bc8887b4fd0722a07616b5e16c5d0a09aa71b8722cccbe6003604051610e3a9190611d58565b60405180910390a2505050505050565b5f805f9054906101000a900473ffffffffffffffffffffffffffffffffffffffff16905090565b610e7961112f565b60015f61210581526020019081526020015f205f9054906101000a900460ff1615610ed9576040517f08c379a0000000000000000000000000000000000000000000000000000000008152600401610ed090611dbb565b60405180910390fd5b5f73420000000000000000000000000000000000000690505f73833589fcd6edb6e08f4c7c32d4f71b54bda0291390505f7350c5725949a6f0c72e6c4a641f24049a917db0cb90505f7371041dddad3595f9ced3dccfbe3d1f4b0a16bb7090505f737e860098f58bbfc8648a4311b374b1d669a2bc6b90505f73591e79239a7d679378ec8c847e5038150364c78f9050610faa8686856040518060400160405280600e81526020017f4554482f555344202842617365290000000000000000000000000000000000008152506111b6565b610feb8585846040518060400160405280600f81526020017f555344432f5553442028426173652900000000000000000000000000000000008152506111b6565b61102c8486836040518060400160405280600e81526020017f4441492f555344202842617365290000000000000000000000000000000000008152506111b6565b6001805f61210581526020019081526020015f205f6101000a81548160ff0219169083151502179055506121057f8f22da452c6c8505b1bc8887b4fd0722a07616b5e16c5d0a09aa71b8722cccbe60036040516110899190611d58565b60405180910390a2505050505050565b6110a161112f565b6110a96112ab565b565b6110b361112f565b5f73ffffffffffffffffffffffffffffffffffffffff168173ffffffffffffffffffffffffffffffffffffffff1603611123575f6040517f1e4fbdf700000000000000000000000000000000000000000000000000000000815260040161111a919061184f565b60405180910390fd5b61112c81611348565b50565b6111376114ff565b73ffffffffffffffffffffffffffffffffffffffff16611155610e4a565b73ffffffffffffffffffffffffffffffffffffffff16146111b4576111786114ff565b6040517f118cdaa70000000000000000000000000000000000000000000000000000000081526004016111ab919061184f565b60405180910390fd5b565b7f000000000000000000000000000000000000000000000000000000000000000073ffffffffffffffffffffffffffffffffffffffff16631b10a9498585856040518463ffffffff1660e01b815260040161121393929190611dd9565b5f604051808303815f87803b15801561122a575f80fd5b505af115801561123c573d5f803e3d5ffd5b505050508273ffffffffffffffffffffffffffffffffffffffff168473ffffffffffffffffffffffffffffffffffffffff167f1bfb6cf590e29574156886678ab2eb7fe658fbea224c52c020172df30f2f71698460405161129d919061184f565b60405180910390a350505050565b5f469050600181036112c4576112bf610903565b611345565b62aa36a781036112db576112d6610c1f565b611344565b61210581036112f1576112ec610e71565b611343565b61a4b1810361130757611302610313565b611342565b6040517f08c379a000000000000000000000000000000000000000000000000000000000815260040161133990611e7e565b60405180910390fd5b5b5b5b50565b5f805f9054906101000a900473ffffffffffffffffffffffffffffffffffffffff169050815f806101000a81548173ffffffffffffffffffffffffffffffffffffffff021916908373ffffffffffffffffffffffffffffffffffffffff1602179055508173ffffffffffffffffffffffffffffffffffffffff168173ffffffffffffffffffffffffffffffffffffffff167f8be0079c531659141344cd1fd0a4f28419497f9722a3daafe3b4186f6b6457e060405160405180910390a35050565b7f000000000000000000000000000000000000000000000000000000000000000073ffffffffffffffffffffffffffffffffffffffff16631b10a9498686866040518463ffffffff1660e01b815260040161146693929190611dd9565b5f604051808303815f87803b15801561147d575f80fd5b505af115801561148f573d5f803e3d5ffd5b505050508373ffffffffffffffffffffffffffffffffffffffff168573ffffffffffffffffffffffffffffffffffffffff167f1bfb6cf590e29574156886678ab2eb7fe658fbea224c52c020172df30f2f7169856040516114f0919061184f565b60405180910390a35050505050565b5f33905090565b5f604051905090565b5f80fd5b5f80fd5b5f819050919050565b61152981611517565b8114611533575f80fd5b50565b5f8135905061154481611520565b92915050565b5f6020828403121561155f5761155e61150f565b5b5f61156c84828501611536565b91505092915050565b5f8115159050919050565b61158981611575565b82525050565b5f6020820190506115a25f830184611580565b92915050565b5f73ffffffffffffffffffffffffffffffffffffffff82169050919050565b5f819050919050565b5f6115ea6115e56115e0846115a8565b6115c7565b6115a8565b9050919050565b5f6115fb826115d0565b9050919050565b5f61160c826115f1565b9050919050565b61161c81611602565b82525050565b5f6020820190506116355f830184611613565b92915050565b5f611645826115a8565b9050919050565b6116558161163b565b811461165f575f80fd5b50565b5f813590506116708161164c565b92915050565b5f805f6060848603121561168d5761168c61150f565b5b5f61169a86828701611662565b93505060206116ab86828701611662565b92505060406116bc86828701611662565b9150509250925092565b5f80604083850312156116dc576116db61150f565b5b5f6116e985828601611662565b92505060206116fa85828601611662565b9150509250929050565b5f80fd5b5f80fd5b5f80fd5b5f8083601f84011261172557611724611704565b5b8235905067ffffffffffffffff81111561174257611741611708565b5b60208301915083602082028301111561175e5761175d61170c565b5b9250929050565b5f806020838503121561177b5761177a61150f565b5b5f83013567ffffffffffffffff81111561179857611797611513565b5b6117a485828601611710565b92509250509250929050565b5f81519050919050565b5f82825260208201905092915050565b8281835e5f83830152505050565b5f601f19601f8301169050919050565b5f6117f2826117b0565b6117fc81856117ba565b935061180c8185602086016117ca565b611815816117d8565b840191505092915050565b5f6020820190508181035f83015261183881846117e8565b905092915050565b6118498161163b565b82525050565b5f6020820190506118625f830184611840565b92915050565b5f6020828403121561187d5761187c61150f565b5b5f61188a84828501611662565b91505092915050565b7f417262697472756d20616c726561647920636f6e6669677572656400000000005f82015250565b5f6118c7601b836117ba565b91506118d282611893565b602082019050919050565b5f6020820190508181035f8301526118f4816118bb565b9050919050565b5f819050919050565b5f61191e611919611914846118fb565b6115c7565b611517565b9050919050565b61192e81611904565b82525050565b5f6020820190506119475f830184611925565b92915050565b5f611957826115f1565b9050919050565b6119678161194d565b82525050565b5f6040820190506119805f83018561195e565b61198d602083018461195e565b9392505050565b7f4e487b71000000000000000000000000000000000000000000000000000000005f52603260045260245ffd5b5f80fd5b5f8235600160a0038336030381126119e0576119df6119c1565b5b80830191505092915050565b5f80fd5b7f4e487b71000000000000000000000000000000000000000000000000000000005f52604160045260245ffd5b611a26826117d8565b810181811067ffffffffffffffff82111715611a4557611a446119f0565b5b80604052505050565b5f611a57611506565b9050611a638282611a1d565b919050565b5f80fd5b5f80fd5b5f67ffffffffffffffff821115611a8a57611a896119f0565b5b611a93826117d8565b9050602081019050919050565b828183375f83830152505050565b5f611ac0611abb84611a70565b611a4e565b905082815260208101848484011115611adc57611adb611a6c565b5b611ae7848285611aa0565b509392505050565b5f82601f830112611b0357611b02611704565b5b8135611b13848260208601611aae565b91505092915050565b611b2581611575565b8114611b2f575f80fd5b50565b5f81359050611b4081611b1c565b92915050565b5f60a08284031215611b5b57611b5a6119ec565b5b611b6560a0611a4e565b90505f611b7484828501611662565b5f830152506020611b8784828501611662565b6020830152506040611b9b84828501611662565b604083015250606082013567ffffffffffffffff811115611bbf57611bbe611a68565b5b611bcb84828501611aef565b6060830152506080611bdf84828501611b32565b60808301525092915050565b5f611bf63683611b46565b9050919050565b7f4d61696e6e657420616c726561647920636f6e666967757265640000000000005f82015250565b5f611c31601a836117ba565b9150611c3c82611bfd565b602082019050919050565b5f6020820190508181035f830152611c5e81611c25565b9050919050565b5f819050919050565b5f611c88611c83611c7e84611c65565b6115c7565b611517565b9050919050565b611c9881611c6e565b82525050565b5f602082019050611cb15f830184611c8f565b92915050565b7f5365706f6c696120616c726561647920636f6e666967757265640000000000005f82015250565b5f611ceb601a836117ba565b9150611cf682611cb7565b602082019050919050565b5f6020820190508181035f830152611d1881611cdf565b9050919050565b5f819050919050565b5f611d42611d3d611d3884611d1f565b6115c7565b611517565b9050919050565b611d5281611d28565b82525050565b5f602082019050611d6b5f830184611d49565b92915050565b7f4261736520616c726561647920636f6e666967757265640000000000000000005f82015250565b5f611da56017836117ba565b9150611db082611d71565b602082019050919050565b5f6020820190508181035f830152611dd281611d99565b9050919050565b5f606082019050611dec5f83018661195e565b611df9602083018561195e565b611e066040830184611840565b949350505050565b7f556e737570706f72746564206e6574776f726b20666f72206175746f2d636f6e5f8201527f66696775726174696f6e00000000000000000000000000000000000000000000602082015250565b5f611e68602a836117ba565b9150611e7382611e0e565b604082019050919050565b5f6020820190508181035f830152611e9581611e5c565b905091905056fea2646970667358221220085124b3df08833244f3634ea30321ad939ff06c40c63cff39ed69de78f7734464736f6c634300081a0033","linkReferences":{}},"methodIdentifiers":{"addCustomPriceFeed(address,address,address)":"33cf226c","autoConfigureNetwork()":"e5c577ed","batchAddPriceFeeds((address,address,address,string,bool)[])":"7e857f9b","configureArbitrum()":"3743e1db","configureBase()":"9b211155","configureMainnet()":"81faaa96","configureSepolia()":"881e9e85","emergencyReconfigure()":"5f952967","getCurrentNetworkName()":"7ea85a05","isCurrentNetworkConfigured()":"1dc2b189","networkConfigured(uint256)":"03807a9e","owner()":"8da5cb5b","priceOracle()":"2630c12f","removePriceFeed(address,address)":"5e41a282","renounceOwnership()":"715018a6","transferOwnership(address)":"f2fde38b"},"id":69}