{"abi":[{"type":"constructor","inputs":[{"name":"_poolManager","type":"address","internalType":"contract IPoolManager"},{"name":"_avsDirectory","type":"address","internalType":"contract IAVSDirectory"},{"name":"_priceOracle","type":"address","internalType":"contract IPriceOracle"},{"name":"_feeRecipient","type":"address","internalType":"address"},{"name":"_lvrThreshold","type":"uint256","internalType":"uint256"}],"stateMutability":"nonpayable"},{"type":"receive","stateMutability":"payable"},{"type":"function","name":"AVS_REWARD_PERCENTAGE","inputs":[],"outputs":[{"name":"","type":"uint256","internalType":"uint256"}],"stateMutability":"view"},{"type":"function","name":"BASIS_POINTS","inputs":[],"outputs":[{"name":"","type":"uint256","internalType":"uint256"}],"stateMutability":"view"},{"type":"function","name":"GAS_COMPENSATION_PERCENTAGE","inputs":[],"outputs":[{"name":"","type":"uint256","internalType":"uint256"}],"stateMutability":"view"},{"type":"function","name":"LP_REWARD_PERCENTAGE","inputs":[],"outputs":[{"name":"","type":"uint256","internalType":"uint256"}],"stateMutability":"view"},{"type":"function","name":"MAX_AUCTION_DURATION","inputs":[],"outputs":[{"name":"","type":"uint256","internalType":"uint256"}],"stateMutability":"view"},{"type":"function","name":"MIN_BID","inputs":[],"outputs":[{"name":"","type":"uint256","internalType":"uint256"}],"stateMutability":"view"},{"type":"function","name":"PROTOCOL_FEE_PERCENTAGE","inputs":[],"outputs":[{"name":"","type":"uint256","internalType":"uint256"}],"stateMutability":"view"},{"type":"function","name":"activeAuctions","inputs":[{"name":"","type":"bytes32","internalType":"PoolId"}],"outputs":[{"name":"","type":"bytes32","internalType":"bytes32"}],"stateMutability":"view"},{"type":"function","name":"afterAddLiquidity","inputs":[{"name":"sender","type":"address","internalType":"address"},{"name":"key","type":"tuple","internalType":"struct PoolKey","components":[{"name":"currency0","type":"address","internalType":"Currency"},{"name":"currency1","type":"address","internalType":"Currency"},{"name":"fee","type":"uint24","internalType":"uint24"},{"name":"tickSpacing","type":"int24","internalType":"int24"},{"name":"hooks","type":"address","internalType":"contract IHooks"}]},{"name":"params","type":"tuple","internalType":"struct ModifyLiquidityParams","components":[{"name":"tickLower","type":"int24","internalType":"int24"},{"name":"tickUpper","type":"int24","internalType":"int24"},{"name":"liquidityDelta","type":"int256","internalType":"int256"},{"name":"salt","type":"bytes32","internalType":"bytes32"}]},{"name":"delta","type":"int256","internalType":"BalanceDelta"},{"name":"feesAccrued","type":"int256","internalType":"BalanceDelta"},{"name":"hookData","type":"bytes","internalType":"bytes"}],"outputs":[{"name":"","type":"bytes4","internalType":"bytes4"},{"name":"","type":"int256","internalType":"BalanceDelta"}],"stateMutability":"nonpayable"},{"type":"function","name":"afterDonate","inputs":[{"name":"sender","type":"address","internalType":"address"},{"name":"key","type":"tuple","internalType":"struct PoolKey","components":[{"name":"currency0","type":"address","internalType":"Currency"},{"name":"currency1","type":"address","internalType":"Currency"},{"name":"fee","type":"uint24","internalType":"uint24"},{"name":"tickSpacing","type":"int24","internalType":"int24"},{"name":"hooks","type":"address","internalType":"contract IHooks"}]},{"name":"amount0","type":"uint256","internalType":"uint256"},{"name":"amount1","type":"uint256","internalType":"uint256"},{"name":"hookData","type":"bytes","internalType":"bytes"}],"outputs":[{"name":"","type":"bytes4","internalType":"bytes4"}],"stateMutability":"nonpayable"},{"type":"function","name":"afterInitialize","inputs":[{"name":"sender","type":"address","internalType":"address"},{"name":"key","type":"tuple","internalType":"struct PoolKey","components":[{"name":"currency0","type":"address","internalType":"Currency"},{"name":"currency1","type":"address","internalType":"Currency"},{"name":"fee","type":"uint24","internalType":"uint24"},{"name":"tickSpacing","type":"int24","internalType":"int24"},{"name":"hooks","type":"address","internalType":"contract IHooks"}]},{"name":"sqrtPriceX96","type":"uint160","internalType":"uint160"},{"name":"tick","type":"int24","internalType":"int24"}],"outputs":[{"name":"","type":"bytes4","internalType":"bytes4"}],"stateMutability":"nonpayable"},{"type":"function","name":"afterRemoveLiquidity","inputs":[{"name":"sender","type":"address","internalType":"address"},{"name":"key","type":"tuple","internalType":"struct PoolKey","components":[{"name":"currency0","type":"address","internalType":"Currency"},{"name":"currency1","type":"address","internalType":"Currency"},{"name":"fee","type":"uint24","internalType":"uint24"},{"name":"tickSpacing","type":"int24","internalType":"int24"},{"name":"hooks","type":"address","internalType":"contract IHooks"}]},{"name":"params","type":"tuple","internalType":"struct ModifyLiquidityParams","components":[{"name":"tickLower","type":"int24","internalType":"int24"},{"name":"tickUpper","type":"int24","internalType":"int24"},{"name":"liquidityDelta","type":"int256","internalType":"int256"},{"name":"salt","type":"bytes32","internalType":"bytes32"}]},{"name":"delta","type":"int256","internalType":"BalanceDelta"},{"name":"feesAccrued","type":"int256","internalType":"BalanceDelta"},{"name":"hookData","type":"bytes","internalType":"bytes"}],"outputs":[{"name":"","type":"bytes4","internalType":"bytes4"},{"name":"","type":"int256","internalType":"BalanceDelta"}],"stateMutability":"nonpayable"},{"type":"function","name":"afterSwap","inputs":[{"name":"sender","type":"address","internalType":"address"},{"name":"key","type":"tuple","internalType":"struct PoolKey","components":[{"name":"currency0","type":"address","internalType":"Currency"},{"name":"currency1","type":"address","internalType":"Currency"},{"name":"fee","type":"uint24","internalType":"uint24"},{"name":"tickSpacing","type":"int24","internalType":"int24"},{"name":"hooks","type":"address","internalType":"contract IHooks"}]},{"name":"params","type":"tuple","internalType":"struct SwapParams","components":[{"name":"zeroForOne","type":"bool","internalType":"bool"},{"name":"amountSpecified","type":"int256","internalType":"int256"},{"name":"sqrtPriceLimitX96","type":"uint160","internalType":"uint160"}]},{"name":"delta","type":"int256","internalType":"BalanceDelta"},{"name":"hookData","type":"bytes","internalType":"bytes"}],"outputs":[{"name":"","type":"bytes4","internalType":"bytes4"},{"name":"","type":"int128","internalType":"int128"}],"stateMutability":"nonpayable"},{"type":"function","name":"auctions","inputs":[{"name":"","type":"bytes32","internalType":"bytes32"}],"outputs":[{"name":"poolId","type":"bytes32","internalType":"PoolId"},{"name":"startTime","type":"uint256","internalType":"uint256"},{"name":"duration","type":"uint256","internalType":"uint256"},{"name":"isActive","type":"bool","internalType":"bool"},{"name":"isComplete","type":"bool","internalType":"bool"},{"name":"winner","type":"address","internalType":"address"},{"name":"winningBid","type":"uint256","internalType":"uint256"},{"name":"totalBids","type":"uint256","internalType":"uint256"}],"stateMutability":"view"},{"type":"function","name":"authorizedOperators","inputs":[{"name":"","type":"address","internalType":"address"}],"outputs":[{"name":"","type":"bool","internalType":"bool"}],"stateMutability":"view"},{"type":"function","name":"avsDirectory","inputs":[],"outputs":[{"name":"","type":"address","internalType":"contract IAVSDirectory"}],"stateMutability":"view"},{"type":"function","name":"beforeAddLiquidity","inputs":[{"name":"sender","type":"address","internalType":"address"},{"name":"key","type":"tuple","internalType":"struct PoolKey","components":[{"name":"currency0","type":"address","internalType":"Currency"},{"name":"currency1","type":"address","internalType":"Currency"},{"name":"fee","type":"uint24","internalType":"uint24"},{"name":"tickSpacing","type":"int24","internalType":"int24"},{"name":"hooks","type":"address","internalType":"contract IHooks"}]},{"name":"params","type":"tuple","internalType":"struct ModifyLiquidityParams","components":[{"name":"tickLower","type":"int24","internalType":"int24"},{"name":"tickUpper","type":"int24","internalType":"int24"},{"name":"liquidityDelta","type":"int256","internalType":"int256"},{"name":"salt","type":"bytes32","internalType":"bytes32"}]},{"name":"hookData","type":"bytes","internalType":"bytes"}],"outputs":[{"name":"","type":"bytes4","internalType":"bytes4"}],"stateMutability":"nonpayable"},{"type":"function","name":"beforeDonate","inputs":[{"name":"sender","type":"address","internalType":"address"},{"name":"key","type":"tuple","internalType":"struct PoolKey","components":[{"name":"currency0","type":"address","internalType":"Currency"},{"name":"currency1","type":"address","internalType":"Currency"},{"name":"fee","type":"uint24","internalType":"uint24"},{"name":"tickSpacing","type":"int24","internalType":"int24"},{"name":"hooks","type":"address","internalType":"contract IHooks"}]},{"name":"amount0","type":"uint256","internalType":"uint256"},{"name":"amount1","type":"uint256","internalType":"uint256"},{"name":"hookData","type":"bytes","internalType":"bytes"}],"outputs":[{"name":"","type":"bytes4","internalType":"bytes4"}],"stateMutability":"nonpayable"},{"type":"function","name":"beforeInitialize","inputs":[{"name":"sender","type":"address","internalType":"address"},{"name":"key","type":"tuple","internalType":"struct PoolKey","components":[{"name":"currency0","type":"address","internalType":"Currency"},{"name":"currency1","type":"address","internalType":"Currency"},{"name":"fee","type":"uint24","internalType":"uint24"},{"name":"tickSpacing","type":"int24","internalType":"int24"},{"name":"hooks","type":"address","internalType":"contract IHooks"}]},{"name":"sqrtPriceX96","type":"uint160","internalType":"uint160"}],"outputs":[{"name":"","type":"bytes4","internalType":"bytes4"}],"stateMutability":"nonpayable"},{"type":"function","name":"beforeRemoveLiquidity","inputs":[{"name":"sender","type":"address","internalType":"address"},{"name":"key","type":"tuple","internalType":"struct PoolKey","components":[{"name":"currency0","type":"address","internalType":"Currency"},{"name":"currency1","type":"address","internalType":"Currency"},{"name":"fee","type":"uint24","internalType":"uint24"},{"name":"tickSpacing","type":"int24","internalType":"int24"},{"name":"hooks","type":"address","internalType":"contract IHooks"}]},{"name":"params","type":"tuple","internalType":"struct ModifyLiquidityParams","components":[{"name":"tickLower","type":"int24","internalType":"int24"},{"name":"tickUpper","type":"int24","internalType":"int24"},{"name":"liquidityDelta","type":"int256","internalType":"int256"},{"name":"salt","type":"bytes32","internalType":"bytes32"}]},{"name":"hookData","type":"bytes","internalType":"bytes"}],"outputs":[{"name":"","type":"bytes4","internalType":"bytes4"}],"stateMutability":"nonpayable"},{"type":"function","name":"beforeSwap","inputs":[{"name":"sender","type":"address","internalType":"address"},{"name":"key","type":"tuple","internalType":"struct PoolKey","components":[{"name":"currency0","type":"address","internalType":"Currency"},{"name":"currency1","type":"address","internalType":"Currency"},{"name":"fee","type":"uint24","internalType":"uint24"},{"name":"tickSpacing","type":"int24","internalType":"int24"},{"name":"hooks","type":"address","internalType":"contract IHooks"}]},{"name":"params","type":"tuple","internalType":"struct SwapParams","components":[{"name":"zeroForOne","type":"bool","internalType":"bool"},{"name":"amountSpecified","type":"int256","internalType":"int256"},{"name":"sqrtPriceLimitX96","type":"uint160","internalType":"uint160"}]},{"name":"hookData","type":"bytes","internalType":"bytes"}],"outputs":[{"name":"","type":"bytes4","internalType":"bytes4"},{"name":"","type":"int256","internalType":"BeforeSwapDelta"},{"name":"","type":"uint24","internalType":"uint24"}],"stateMutability":"nonpayable"},{"type":"function","name":"claimRewards","inputs":[{"name":"poolId","type":"bytes32","internalType":"PoolId"}],"outputs":[],"stateMutability":"nonpayable"},{"type":"function","name":"feeRecipient","inputs":[],"outputs":[{"name":"","type":"address","internalType":"address"}],"stateMutability":"view"},{"type":"function","name":"getHookPermissions","inputs":[],"outputs":[{"name":"","type":"tuple","internalType":"struct Hooks.Permissions","components":[{"name":"beforeInitialize","type":"bool","internalType":"bool"},{"name":"afterInitialize","type":"bool","internalType":"bool"},{"name":"beforeAddLiquidity","type":"bool","internalType":"bool"},{"name":"afterAddLiquidity","type":"bool","internalType":"bool"},{"name":"beforeRemoveLiquidity","type":"bool","internalType":"bool"},{"name":"afterRemoveLiquidity","type":"bool","internalType":"bool"},{"name":"beforeSwap","type":"bool","internalType":"bool"},{"name":"afterSwap","type":"bool","internalType":"bool"},{"name":"beforeDonate","type":"bool","internalType":"bool"},{"name":"afterDonate","type":"bool","internalType":"bool"},{"name":"beforeSwapReturnDelta","type":"bool","internalType":"bool"},{"name":"afterSwapReturnDelta","type":"bool","internalType":"bool"},{"name":"afterAddLiquidityReturnDelta","type":"bool","internalType":"bool"},{"name":"afterRemoveLiquidityReturnDelta","type":"bool","internalType":"bool"}]}],"stateMutability":"pure"},{"type":"function","name":"lpLiquidity","inputs":[{"name":"","type":"bytes32","internalType":"PoolId"},{"name":"","type":"address","internalType":"address"}],"outputs":[{"name":"","type":"uint256","internalType":"uint256"}],"stateMutability":"view"},{"type":"function","name":"lpRewards","inputs":[{"name":"","type":"bytes32","internalType":"PoolId"},{"name":"","type":"address","internalType":"address"}],"outputs":[{"name":"","type":"uint256","internalType":"uint256"}],"stateMutability":"view"},{"type":"function","name":"lvrThreshold","inputs":[],"outputs":[{"name":"","type":"uint256","internalType":"uint256"}],"stateMutability":"view"},{"type":"function","name":"mockPoolPrices","inputs":[{"name":"","type":"bytes32","internalType":"bytes32"}],"outputs":[{"name":"","type":"uint256","internalType":"uint256"}],"stateMutability":"view"},{"type":"function","name":"owner","inputs":[],"outputs":[{"name":"","type":"address","internalType":"address"}],"stateMutability":"view"},{"type":"function","name":"pause","inputs":[],"outputs":[],"stateMutability":"nonpayable"},{"type":"function","name":"paused","inputs":[],"outputs":[{"name":"","type":"bool","internalType":"bool"}],"stateMutability":"view"},{"type":"function","name":"poolManager","inputs":[],"outputs":[{"name":"","type":"address","internalType":"contract IPoolManager"}],"stateMutability":"view"},{"type":"function","name":"poolRewards","inputs":[{"name":"","type":"bytes32","internalType":"PoolId"}],"outputs":[{"name":"","type":"uint256","internalType":"uint256"}],"stateMutability":"view"},{"type":"function","name":"priceOracle","inputs":[],"outputs":[{"name":"","type":"address","internalType":"contract IPriceOracle"}],"stateMutability":"view"},{"type":"function","name":"renounceOwnership","inputs":[],"outputs":[],"stateMutability":"nonpayable"},{"type":"function","name":"setFeeRecipient","inputs":[{"name":"newFeeRecipient","type":"address","internalType":"address"}],"outputs":[],"stateMutability":"nonpayable"},{"type":"function","name":"setLVRThreshold","inputs":[{"name":"newThreshold","type":"uint256","internalType":"uint256"}],"outputs":[],"stateMutability":"nonpayable"},{"type":"function","name":"setMockPoolPrice","inputs":[{"name":"key","type":"tuple","internalType":"struct PoolKey","components":[{"name":"currency0","type":"address","internalType":"Currency"},{"name":"currency1","type":"address","internalType":"Currency"},{"name":"fee","type":"uint24","internalType":"uint24"},{"name":"tickSpacing","type":"int24","internalType":"int24"},{"name":"hooks","type":"address","internalType":"contract IHooks"}]},{"name":"price","type":"uint256","internalType":"uint256"}],"outputs":[],"stateMutability":"nonpayable"},{"type":"function","name":"setOperatorAuthorization","inputs":[{"name":"operator","type":"address","internalType":"address"},{"name":"authorized","type":"bool","internalType":"bool"}],"outputs":[],"stateMutability":"nonpayable"},{"type":"function","name":"submitAuctionResult","inputs":[{"name":"auctionId","type":"bytes32","internalType":"bytes32"},{"name":"winner","type":"address","internalType":"address"},{"name":"winningBid","type":"uint256","internalType":"uint256"}],"outputs":[],"stateMutability":"nonpayable"},{"type":"function","name":"testAfterSwap","inputs":[{"name":"sender","type":"address","internalType":"address"},{"name":"key","type":"tuple","internalType":"struct PoolKey","components":[{"name":"currency0","type":"address","internalType":"Currency"},{"name":"currency1","type":"address","internalType":"Currency"},{"name":"fee","type":"uint24","internalType":"uint24"},{"name":"tickSpacing","type":"int24","internalType":"int24"},{"name":"hooks","type":"address","internalType":"contract IHooks"}]},{"name":"params","type":"tuple","internalType":"struct SwapParams","components":[{"name":"zeroForOne","type":"bool","internalType":"bool"},{"name":"amountSpecified","type":"int256","internalType":"int256"},{"name":"sqrtPriceLimitX96","type":"uint160","internalType":"uint160"}]},{"name":"delta","type":"int256","internalType":"BalanceDelta"},{"name":"hookData","type":"bytes","internalType":"bytes"}],"outputs":[{"name":"","type":"bytes4","internalType":"bytes4"},{"name":"","type":"int128","internalType":"int128"}],"stateMutability":"nonpayable"},{"type":"function","name":"testBeforeAddLiquidity","inputs":[{"name":"sender","type":"address","internalType":"address"},{"name":"key","type":"tuple","internalType":"struct PoolKey","components":[{"name":"currency0","type":"address","internalType":"Currency"},{"name":"currency1","type":"address","internalType":"Currency"},{"name":"fee","type":"uint24","internalType":"uint24"},{"name":"tickSpacing","type":"int24","internalType":"int24"},{"name":"hooks","type":"address","internalType":"contract IHooks"}]},{"name":"params","type":"tuple","internalType":"struct ModifyLiquidityParams","components":[{"name":"tickLower","type":"int24","internalType":"int24"},{"name":"tickUpper","type":"int24","internalType":"int24"},{"name":"liquidityDelta","type":"int256","internalType":"int256"},{"name":"salt","type":"bytes32","internalType":"bytes32"}]},{"name":"hookData","type":"bytes","internalType":"bytes"}],"outputs":[{"name":"","type":"bytes4","internalType":"bytes4"}],"stateMutability":"nonpayable"},{"type":"function","name":"testBeforeRemoveLiquidity","inputs":[{"name":"sender","type":"address","internalType":"address"},{"name":"key","type":"tuple","internalType":"struct PoolKey","components":[{"name":"currency0","type":"address","internalType":"Currency"},{"name":"currency1","type":"address","internalType":"Currency"},{"name":"fee","type":"uint24","internalType":"uint24"},{"name":"tickSpacing","type":"int24","internalType":"int24"},{"name":"hooks","type":"address","internalType":"contract IHooks"}]},{"name":"params","type":"tuple","internalType":"struct ModifyLiquidityParams","components":[{"name":"tickLower","type":"int24","internalType":"int24"},{"name":"tickUpper","type":"int24","internalType":"int24"},{"name":"liquidityDelta","type":"int256","internalType":"int256"},{"name":"salt","type":"bytes32","internalType":"bytes32"}]},{"name":"hookData","type":"bytes","internalType":"bytes"}],"outputs":[{"name":"","type":"bytes4","internalType":"bytes4"}],"stateMutability":"nonpayable"},{"type":"function","name":"testBeforeSwap","inputs":[{"name":"sender","type":"address","internalType":"address"},{"name":"key","type":"tuple","internalType":"struct PoolKey","components":[{"name":"currency0","type":"address","internalType":"Currency"},{"name":"currency1","type":"address","internalType":"Currency"},{"name":"fee","type":"uint24","internalType":"uint24"},{"name":"tickSpacing","type":"int24","internalType":"int24"},{"name":"hooks","type":"address","internalType":"contract IHooks"}]},{"name":"params","type":"tuple","internalType":"struct SwapParams","components":[{"name":"zeroForOne","type":"bool","internalType":"bool"},{"name":"amountSpecified","type":"int256","internalType":"int256"},{"name":"sqrtPriceLimitX96","type":"uint160","internalType":"uint160"}]},{"name":"hookData","type":"bytes","internalType":"bytes"}],"outputs":[{"name":"","type":"bytes4","internalType":"bytes4"},{"name":"","type":"int256","internalType":"BeforeSwapDelta"},{"name":"","type":"uint24","internalType":"uint24"}],"stateMutability":"nonpayable"},{"type":"function","name":"testClaimRewards","inputs":[{"name":"poolId","type":"bytes32","internalType":"PoolId"}],"outputs":[],"stateMutability":"nonpayable"},{"type":"function","name":"testCreateAuction","inputs":[{"name":"poolId","type":"bytes32","internalType":"PoolId"},{"name":"auctionId","type":"bytes32","internalType":"bytes32"},{"name":"startTime","type":"uint256","internalType":"uint256"},{"name":"duration","type":"uint256","internalType":"uint256"},{"name":"isActive","type":"bool","internalType":"bool"},{"name":"isComplete","type":"bool","internalType":"bool"}],"outputs":[],"stateMutability":"nonpayable"},{"type":"function","name":"testSetActiveAuction","inputs":[{"name":"poolId","type":"bytes32","internalType":"PoolId"},{"name":"auctionId","type":"bytes32","internalType":"bytes32"}],"outputs":[],"stateMutability":"nonpayable"},{"type":"function","name":"testSetLpLiquidity","inputs":[{"name":"poolId","type":"bytes32","internalType":"PoolId"},{"name":"lp","type":"address","internalType":"address"},{"name":"amount","type":"uint256","internalType":"uint256"}],"outputs":[],"stateMutability":"nonpayable"},{"type":"function","name":"testSetPoolRewards","inputs":[{"name":"poolId","type":"bytes32","internalType":"PoolId"},{"name":"amount","type":"uint256","internalType":"uint256"}],"outputs":[],"stateMutability":"nonpayable"},{"type":"function","name":"testSetTotalLiquidity","inputs":[{"name":"poolId","type":"bytes32","internalType":"PoolId"},{"name":"amount","type":"uint256","internalType":"uint256"}],"outputs":[],"stateMutability":"nonpayable"},{"type":"function","name":"testSubmitAuctionResult","inputs":[{"name":"auctionId","type":"bytes32","internalType":"bytes32"},{"name":"winner","type":"address","internalType":"address"},{"name":"winningBid","type":"uint256","internalType":"uint256"}],"outputs":[],"stateMutability":"nonpayable"},{"type":"function","name":"testSubmitAuctionResultWithTimingCheck","inputs":[{"name":"auctionId","type":"bytes32","internalType":"bytes32"},{"name":"winner","type":"address","internalType":"address"},{"name":"winningBid","type":"uint256","internalType":"uint256"}],"outputs":[],"stateMutability":"nonpayable"},{"type":"function","name":"totalLiquidity","inputs":[{"name":"","type":"bytes32","internalType":"PoolId"}],"outputs":[{"name":"","type":"uint256","internalType":"uint256"}],"stateMutability":"view"},{"type":"function","name":"transferOwnership","inputs":[{"name":"newOwner","type":"address","internalType":"address"}],"outputs":[],"stateMutability":"nonpayable"},{"type":"function","name":"unpause","inputs":[],"outputs":[],"stateMutability":"nonpayable"},{"type":"event","name":"AuctionEnded","inputs":[{"name":"auctionId","type":"bytes32","indexed":true,"internalType":"bytes32"},{"name":"poolId","type":"bytes32","indexed":true,"internalType":"PoolId"},{"name":"winner","type":"address","indexed":true,"internalType":"address"},{"name":"winningBid","type":"uint256","indexed":false,"internalType":"uint256"}],"anonymous":false},{"type":"event","name":"AuctionStarted","inputs":[{"name":"auctionId","type":"bytes32","indexed":true,"internalType":"bytes32"},{"name":"poolId","type":"bytes32","indexed":true,"internalType":"PoolId"},{"name":"startTime","type":"uint256","indexed":false,"internalType":"uint256"},{"name":"duration","type":"uint256","indexed":false,"internalType":"uint256"}],"anonymous":false},{"type":"event","name":"LVRThresholdUpdated","inputs":[{"name":"oldThreshold","type":"uint256","indexed":false,"internalType":"uint256"},{"name":"newThreshold","type":"uint256","indexed":false,"internalType":"uint256"}],"anonymous":false},{"type":"event","name":"MEVDistributed","inputs":[{"name":"poolId","type":"bytes32","indexed":true,"internalType":"PoolId"},{"name":"totalAmount","type":"uint256","indexed":false,"internalType":"uint256"},{"name":"lpAmount","type":"uint256","indexed":false,"internalType":"uint256"},{"name":"avsAmount","type":"uint256","indexed":false,"internalType":"uint256"},{"name":"protocolAmount","type":"uint256","indexed":false,"internalType":"uint256"}],"anonymous":false},{"type":"event","name":"OperatorAuthorized","inputs":[{"name":"operator","type":"address","indexed":true,"internalType":"address"},{"name":"authorized","type":"bool","indexed":false,"internalType":"bool"}],"anonymous":false},{"type":"event","name":"OwnershipTransferred","inputs":[{"name":"previousOwner","type":"address","indexed":true,"internalType":"address"},{"name":"newOwner","type":"address","indexed":true,"internalType":"address"}],"anonymous":false},{"type":"event","name":"Paused","inputs":[{"name":"account","type":"address","indexed":false,"internalType":"address"}],"anonymous":false},{"type":"event","name":"RewardsClaimed","inputs":[{"name":"poolId","type":"bytes32","indexed":true,"internalType":"PoolId"},{"name":"lp","type":"address","indexed":true,"internalType":"address"},{"name":"amount","type":"uint256","indexed":false,"internalType":"uint256"}],"anonymous":false},{"type":"event","name":"Unpaused","inputs":[{"name":"account","type":"address","indexed":false,"internalType":"address"}],"anonymous":false},{"type":"error","name":"EnforcedPause","inputs":[]},{"type":"error","name":"ExpectedPause","inputs":[]},{"type":"error","name":"HookNotImplemented","inputs":[]},{"type":"error","name":"NotPoolManager","inputs":[]},{"type":"error","name":"OwnableInvalidOwner","inputs":[{"name":"owner","type":"address","internalType":"address"}]},{"type":"error","name":"OwnableUnauthorizedAccount","inputs":[{"name":"account","type":"address","internalType":"address"}]},{"type":"error","name":"ReentrancyGuardReentrantCall","inputs":[]}],"bytecode":{"object":"0x60e060405234801561000f575f80fd5b50604051615200380380615200833981810160405281019061003191906103e5565b84848484843385808073ffffffffffffffffffffffffffffffffffffffff1660808173ffffffffffffffffffffffffffffffffffffffff16815250505061007d306101dd60201b60201c565b5060015f819055505f73ffffffffffffffffffffffffffffffffffffffff168173ffffffffffffffffffffffffffffffffffffffff16036100f5575f6040517f1e4fbdf70000000000000000000000000000000000000000000000000000000081526004016100ec919061046b565b60405180910390fd5b610104816101e060201b60201c565b505f600160146101000a81548160ff0219169083151502179055508373ffffffffffffffffffffffffffffffffffffffff1660a08173ffffffffffffffffffffffffffffffffffffffff16815250508273ffffffffffffffffffffffffffffffffffffffff1660c08173ffffffffffffffffffffffffffffffffffffffff16815250508160095f6101000a81548173ffffffffffffffffffffffffffffffffffffffff021916908373ffffffffffffffffffffffffffffffffffffffff16021790555080600a8190555050505050505050505050610484565b50565b5f60015f9054906101000a900473ffffffffffffffffffffffffffffffffffffffff1690508160015f6101000a81548173ffffffffffffffffffffffffffffffffffffffff021916908373ffffffffffffffffffffffffffffffffffffffff1602179055508173ffffffffffffffffffffffffffffffffffffffff168173ffffffffffffffffffffffffffffffffffffffff167f8be0079c531659141344cd1fd0a4f28419497f9722a3daafe3b4186f6b6457e060405160405180910390a35050565b5f80fd5b5f73ffffffffffffffffffffffffffffffffffffffff82169050919050565b5f6102d0826102a7565b9050919050565b5f6102e1826102c6565b9050919050565b6102f1816102d7565b81146102fb575f80fd5b50565b5f8151905061030c816102e8565b92915050565b5f61031c826102c6565b9050919050565b61032c81610312565b8114610336575f80fd5b50565b5f8151905061034781610323565b92915050565b5f610357826102c6565b9050919050565b6103678161034d565b8114610371575f80fd5b50565b5f815190506103828161035e565b92915050565b610391816102c6565b811461039b575f80fd5b50565b5f815190506103ac81610388565b92915050565b5f819050919050565b6103c4816103b2565b81146103ce575f80fd5b50565b5f815190506103df816103bb565b92915050565b5f805f805f60a086880312156103fe576103fd6102a3565b5b5f61040b888289016102fe565b955050602061041c88828901610339565b945050604061042d88828901610374565b935050606061043e8882890161039e565b925050608061044f888289016103d1565b9150509295509295909350565b610465816102c6565b82525050565b5f60208201905061047e5f83018461045c565b92915050565b60805160a05160c051614cfe6105025f395f818161124301528181612c2101526132f101525f61157901525f818161108a01528181611128015281816114c00152818161159f0152818161166301528181611c4f01528181611daf01528181611e520152818161227f015281816122a4015261235e0152614cfe5ff3fe608060405260043610610353575f3560e01c80637f98978c116101c5578063c4e833ce116100f6578063dcd728b511610094578063e4d7d6dc1161006e578063e4d7d6dc14610cef578063e74b981b14610d19578063f2fde38b14610d41578063f6afbb6314610d695761035a565b8063dcd728b514610c4d578063e1b4af6914610c89578063e1f1c4a714610cc55761035a565b8063d40ea4d9116100d0578063d40ea4d914610b83578063d5eab68d14610bab578063dc4c90d314610be7578063dc98354e14610c115761035a565b8063c4e833ce14610af1578063c8dc556814610b1b578063ce69cd2014610b595761035a565b8063a99e408711610163578063b47b2fb11161013d578063b47b2fb114610a14578063b6a8b0fa14610a51578063ba65162014610a8d578063c0e8d38414610ab55761035a565b8063a99e408714610998578063af4cbe80146109c0578063b26565c5146109ea5761035a565b80638456cb591161019f5780638456cb59146108f3578063872edadc146109095780638da5cb5b146109315780639f063efc1461095b5761035a565b80637f98978c14610867578063835c1a521461088f57806383b83aca146108b75761035a565b806344a32bff1161029f5780636b3aa72e1161023d5780636fe7e6eb116102175780636fe7e6eb146107c5578063715018a614610801578063726b0114146108175780637790ddc61461083f5761035a565b80636b3aa72e146107215780636c2bbe7e1461074b5780636fac2187146107885761035a565b80635498304c116102795780635498304c1461064157806354b7a8f71461067d578063575e24b4146106b95780635c975abb146106f75761035a565b806344a32bff146105c757806346904840146105ef5780634b2328e8146106195761035a565b80632619b98a1161030c5780632ae8c718116102e65780632ae8c718146105215780633f4ba83a1461054b5780633fb3517814610561578063446124561461058b5761035a565b80632619b98a146104a75780632630c12f146104cf578063274b5f46146104f95761035a565b8063181d989b1461035e5780631a8a61f31461039a5780631e52301c146103c45780631edbc5be146103ec57806321d0ee701461042f578063259982e51461046b5761035a565b3661035a57005b5f80fd5b348015610369575f80fd5b50610384600480360381019061037f9190613793565b610da5565b60405161039191906137d8565b60405180910390f35b3480156103a5575f80fd5b506103ae610dc2565b6040516103bb9190613809565b60405180910390f35b3480156103cf575f80fd5b506103ea60048036038101906103e5919061387f565b610dc8565b005b3480156103f7575f80fd5b50610412600480360381019061040d91906138cf565b61100a565b604051610426989796959493929190613929565b60405180910390f35b34801561043a575f80fd5b5061045560048036038101906104509190613a46565b611087565b6040516104629190613b06565b60405180910390f35b348015610476575f80fd5b50610491600480360381019061048c9190613a46565b611125565b60405161049e9190613b06565b60405180910390f35b3480156104b2575f80fd5b506104cd60048036038101906104c89190613b1f565b6111c3565b005b3480156104da575f80fd5b506104e3611241565b6040516104f09190613bb8565b60405180910390f35b348015610504575f80fd5b5061051f600480360381019061051a919061387f565b611265565b005b34801561052c575f80fd5b506105356113fc565b6040516105429190613809565b60405180910390f35b348015610556575f80fd5b5061055f611401565b005b34801561056c575f80fd5b50610575611413565b6040516105829190613809565b60405180910390f35b348015610596575f80fd5b506105b160048036038101906105ac9190613bfb565b611418565b6040516105be9190613809565b60405180910390f35b3480156105d2575f80fd5b506105ed60048036038101906105e89190613c39565b611438565b005b3480156105fa575f80fd5b50610603611452565b6040516106109190613c77565b60405180910390f35b348015610624575f80fd5b5061063f600480360381019061063a9190613c90565b611477565b005b34801561064c575f80fd5b5061066760048036038101906106629190613cce565b611491565b6040516106749190613d08565b60405180910390f35b348015610688575f80fd5b506106a3600480360381019061069e9190613cce565b6114a6565b6040516106b09190613809565b60405180910390f35b3480156106c4575f80fd5b506106df60048036038101906106da9190613d3f565b6114bb565b6040516106ee93929190613e1b565b60405180910390f35b348015610702575f80fd5b5061070b611561565b60405161071891906137d8565b60405180910390f35b34801561072c575f80fd5b50610735611577565b6040516107429190613e70565b60405180910390f35b348015610756575f80fd5b50610771600480360381019061076c9190613eb3565b61159b565b60405161077f929190613f70565b60405180910390f35b348015610793575f80fd5b506107ae60048036038101906107a99190613f97565b611641565b6040516107bc92919061404b565b60405180910390f35b3480156107d0575f80fd5b506107eb60048036038101906107e691906140d2565b611660565b6040516107f89190613b06565b60405180910390f35b34801561080c575f80fd5b506108156116fc565b005b348015610822575f80fd5b5061083d60048036038101906108389190614137565b61170f565b005b34801561084a575f80fd5b5061086560048036038101906108609190613cce565b611765565b005b348015610872575f80fd5b5061088d6004803603810190610888919061387f565b611977565b005b34801561089a575f80fd5b506108b560048036038101906108b09190613c39565b611ab8565b005b3480156108c2575f80fd5b506108dd60048036038101906108d89190613a46565b611ad2565b6040516108ea9190613b06565b60405180910390f35b3480156108fe575f80fd5b50610907611aeb565b005b348015610914575f80fd5b5061092f600480360381019061092a91906141b1565b611afd565b005b34801561093c575f80fd5b50610945611c23565b6040516109529190613c77565b60405180910390f35b348015610966575f80fd5b50610981600480360381019061097c9190613eb3565b611c4b565b60405161098f929190613f70565b60405180910390f35b3480156109a3575f80fd5b506109be60048036038101906109b9919061423a565b611cf1565b005b3480156109cb575f80fd5b506109d4611d9f565b6040516109e19190613809565b60405180910390f35b3480156109f5575f80fd5b506109fe611da5565b604051610a0b9190613809565b60405180910390f35b348015610a1f575f80fd5b50610a3a6004803603810190610a359190613f97565b611dab565b604051610a4892919061404b565b60405180910390f35b348015610a5c575f80fd5b50610a776004803603810190610a729190614278565b611e4f565b604051610a849190613b06565b60405180910390f35b348015610a98575f80fd5b50610ab36004803603810190610aae9190613cce565b611eef565b005b348015610ac0575f80fd5b50610adb6004803603810190610ad69190613cce565b612105565b604051610ae89190613809565b60405180910390f35b348015610afc575f80fd5b50610b0561211a565b604051610b12919061443d565b60405180910390f35b348015610b26575f80fd5b50610b416004803603810190610b3c9190613d3f565b6121a5565b604051610b5093929190613e1b565b60405180910390f35b348015610b64575f80fd5b50610b6d6121c6565b604051610b7a9190613809565b60405180910390f35b348015610b8e575f80fd5b50610ba96004803603810190610ba49190614457565b6121d1565b005b348015610bb6575f80fd5b50610bd16004803603810190610bcc91906138cf565b612268565b604051610bde9190613809565b60405180910390f35b348015610bf2575f80fd5b50610bfb61227d565b604051610c0891906144a2565b60405180910390f35b348015610c1c575f80fd5b50610c376004803603810190610c3291906144bb565b6122a1565b604051610c449190613b06565b60405180910390f35b348015610c58575f80fd5b50610c736004803603810190610c6e9190613bfb565b61233b565b604051610c809190613809565b60405180910390f35b348015610c94575f80fd5b50610caf6004803603810190610caa9190614278565b61235b565b604051610cbc9190613b06565b60405180910390f35b348015610cd0575f80fd5b50610cd96123fb565b604051610ce69190613809565b60405180910390f35b348015610cfa575f80fd5b50610d03612401565b604051610d109190613809565b60405180910390f35b348015610d24575f80fd5b50610d3f6004803603810190610d3a9190613793565b612407565b005b348015610d4c575f80fd5b50610d676004803603810190610d629190613793565b6124c0565b005b348015610d74575f80fd5b50610d8f6004803603810190610d8a9190613a46565b612544565b604051610d9c9190613b06565b60405180910390f35b6008602052805f5260405f205f915054906101000a900460ff1681565b6103e881565b60085f3373ffffffffffffffffffffffffffffffffffffffff1673ffffffffffffffffffffffffffffffffffffffff1681526020019081526020015f205f9054906101000a900460ff16610e51576040517f08c379a0000000000000000000000000000000000000000000000000000000008152600401610e4890614565565b60405180910390fd5b8260035f8281526020019081526020015f206003015f9054906101000a900460ff16610eb2576040517f08c379a0000000000000000000000000000000000000000000000000000000008152600401610ea9906145cd565b60405180910390fd5b610eba61255d565b5f60035f8681526020019081526020015f20905080600201548160010154610ee29190614618565b421015610f24576040517f08c379a0000000000000000000000000000000000000000000000000000000008152600401610f1b90614695565b60405180910390fd5b838160030160026101000a81548173ffffffffffffffffffffffffffffffffffffffff021916908373ffffffffffffffffffffffffffffffffffffffff16021790555082816004018190555060018160030160016101000a81548160ff0219169083151502179055505f816003015f6101000a81548160ff0219169083151502179055508373ffffffffffffffffffffffffffffffffffffffff16815f0154867f32f65ad10bfa4a0ee9db45ba15bf04a4005908f729d666edbc5e421b4519206c86604051610ff39190613809565b60405180910390a4506110046125a1565b50505050565b6003602052805f5260405f205f91509050805f015490806001015490806002015490806003015f9054906101000a900460ff16908060030160019054906101000a900460ff16908060030160029054906101000a900473ffffffffffffffffffffffffffffffffffffffff16908060040154908060050154905088565b5f7f000000000000000000000000000000000000000000000000000000000000000073ffffffffffffffffffffffffffffffffffffffff163373ffffffffffffffffffffffffffffffffffffffff161461110d576040517fae18210a00000000000000000000000000000000000000000000000000000000815260040160405180910390fd5b61111a86868686866125aa565b905095945050505050565b5f7f000000000000000000000000000000000000000000000000000000000000000073ffffffffffffffffffffffffffffffffffffffff163373ffffffffffffffffffffffffffffffffffffffff16146111ab576040517fae18210a00000000000000000000000000000000000000000000000000000000815260040160405180910390fd5b6111b88686868686612683565b905095945050505050565b5f825f0160208101906111d691906146dd565b8360200160208101906111e991906146dd565b8460400160208101906111fc9190614732565b60405160200161120e9392919061477d565b60405160208183030381529060405280519060200120905081600b5f8381526020019081526020015f2081905550505050565b7f000000000000000000000000000000000000000000000000000000000000000081565b5f60035f8581526020019081526020015f209050806003015f9054906101000a900460ff166112c9576040517f08c379a00000000000000000000000000000000000000000000000000000000081526004016112c0906145cd565b60405180910390fd5b806002015481600101546112dd9190614618565b42101561131f576040517f08c379a000000000000000000000000000000000000000000000000000000000815260040161131690614695565b60405180910390fd5b828160030160026101000a81548173ffffffffffffffffffffffffffffffffffffffff021916908373ffffffffffffffffffffffffffffffffffffffff16021790555081816004018190555060018160030160016101000a81548160ff0219169083151502179055505f816003015f6101000a81548160ff0219169083151502179055508273ffffffffffffffffffffffffffffffffffffffff16815f0154857f32f65ad10bfa4a0ee9db45ba15bf04a4005908f729d666edbc5e421b4519206c856040516113ee9190613809565b60405180910390a450505050565b60c881565b611409612752565b6114116127d9565b565b600c81565b6005602052815f5260405f20602052805f5260405f205f91509150505481565b8060065f8481526020019081526020015f20819055505050565b60095f9054906101000a900473ffffffffffffffffffffffffffffffffffffffff1681565b8060025f8481526020019081526020015f20819055505050565b6002602052805f5260405f205f915090505481565b6006602052805f5260405f205f915090505481565b5f805f7f000000000000000000000000000000000000000000000000000000000000000073ffffffffffffffffffffffffffffffffffffffff163373ffffffffffffffffffffffffffffffffffffffff1614611543576040517fae18210a00000000000000000000000000000000000000000000000000000000815260040160405180910390fd5b611550888888888861283b565b925092509250955095509592505050565b5f600160149054906101000a900460ff16905090565b7f000000000000000000000000000000000000000000000000000000000000000081565b5f807f000000000000000000000000000000000000000000000000000000000000000073ffffffffffffffffffffffffffffffffffffffff163373ffffffffffffffffffffffffffffffffffffffff1614611622576040517fae18210a00000000000000000000000000000000000000000000000000000000815260040160405180910390fd5b61163189898989898989612897565b9150915097509795505050505050565b5f806116518888888888886128cb565b91509150965096945050505050565b5f7f000000000000000000000000000000000000000000000000000000000000000073ffffffffffffffffffffffffffffffffffffffff163373ffffffffffffffffffffffffffffffffffffffff16146116e6576040517fae18210a00000000000000000000000000000000000000000000000000000000815260040160405180910390fd5b6116f285858585612958565b9050949350505050565b611704612752565b61170d5f61298b565b565b8060075f8581526020019081526020015f205f8473ffffffffffffffffffffffffffffffffffffffff1673ffffffffffffffffffffffffffffffffffffffff1681526020019081526020015f2081905550505050565b61176d61255d565b5f60075f8381526020019081526020015f205f3373ffffffffffffffffffffffffffffffffffffffff1673ffffffffffffffffffffffffffffffffffffffff1681526020019081526020015f205490505f81116117ff576040517f08c379a00000000000000000000000000000000000000000000000000000000081526004016117f6906147fc565b60405180910390fd5b5f60065f8481526020019081526020015f205490505f60045f8581526020019081526020015f205490505f828483611837919061481a565b6118419190614888565b90505f811115611968578060055f8781526020019081526020015f205f3373ffffffffffffffffffffffffffffffffffffffff1673ffffffffffffffffffffffffffffffffffffffff1681526020019081526020015f205f8282546118a69190614618565b925050819055508060045f8781526020019081526020015f205f8282546118cd91906148b8565b925050819055503373ffffffffffffffffffffffffffffffffffffffff166108fc8290811502906040515f60405180830381858888f19350505050158015611917573d5f803e3d5ffd5b503373ffffffffffffffffffffffffffffffffffffffff16857ffec539b3c42d74cd492c3ecf7966bf014b327beef98e935cdc3ec5e54a6901c78360405161195f9190613809565b60405180910390a35b505050506119746125a1565b50565b5f60035f8581526020019081526020015f209050806003015f9054906101000a900460ff166119db576040517f08c379a00000000000000000000000000000000000000000000000000000000081526004016119d2906145cd565b60405180910390fd5b828160030160026101000a81548173ffffffffffffffffffffffffffffffffffffffff021916908373ffffffffffffffffffffffffffffffffffffffff16021790555081816004018190555060018160030160016101000a81548160ff0219169083151502179055505f816003015f6101000a81548160ff0219169083151502179055508273ffffffffffffffffffffffffffffffffffffffff16815f0154857f32f65ad10bfa4a0ee9db45ba15bf04a4005908f729d666edbc5e421b4519206c85604051611aaa9190613809565b60405180910390a450505050565b8060045f8481526020019081526020015f20819055505050565b5f611ae086868686866125aa565b905095945050505050565b611af3612752565b611afb612a4e565b565b604051806101000160405280878152602001858152602001848152602001831515815260200182151581526020015f73ffffffffffffffffffffffffffffffffffffffff1681526020015f81526020015f81525060035f8781526020019081526020015f205f820151815f015560208201518160010155604082015181600201556060820151816003015f6101000a81548160ff02191690831515021790555060808201518160030160016101000a81548160ff02191690831515021790555060a08201518160030160026101000a81548173ffffffffffffffffffffffffffffffffffffffff021916908373ffffffffffffffffffffffffffffffffffffffff16021790555060c0820151816004015560e08201518160050155905050505050505050565b5f60015f9054906101000a900473ffffffffffffffffffffffffffffffffffffffff16905090565b5f807f000000000000000000000000000000000000000000000000000000000000000073ffffffffffffffffffffffffffffffffffffffff163373ffffffffffffffffffffffffffffffffffffffff1614611cd2576040517fae18210a00000000000000000000000000000000000000000000000000000000815260040160405180910390fd5b611ce189898989898989612ab0565b9150915097509795505050505050565b611cf9612752565b8060085f8473ffffffffffffffffffffffffffffffffffffffff1673ffffffffffffffffffffffffffffffffffffffff1681526020019081526020015f205f6101000a81548160ff0219169083151502179055508173ffffffffffffffffffffffffffffffffffffffff167fc176fcf7d48a6aca0d96d3b3201f7add47c4af04ce9a51f5f4eb15d528c46e2182604051611d9391906137d8565b60405180910390a25050565b600a5481565b61213481565b5f807f000000000000000000000000000000000000000000000000000000000000000073ffffffffffffffffffffffffffffffffffffffff163373ffffffffffffffffffffffffffffffffffffffff1614611e32576040517fae18210a00000000000000000000000000000000000000000000000000000000815260040160405180910390fd5b611e408888888888886128cb565b91509150965096945050505050565b5f7f000000000000000000000000000000000000000000000000000000000000000073ffffffffffffffffffffffffffffffffffffffff163373ffffffffffffffffffffffffffffffffffffffff1614611ed5576040517fae18210a00000000000000000000000000000000000000000000000000000000815260040160405180910390fd5b611ee3878787878787612ae4565b90509695505050505050565b5f60075f8381526020019081526020015f205f3373ffffffffffffffffffffffffffffffffffffffff1673ffffffffffffffffffffffffffffffffffffffff1681526020019081526020015f205490505f8111611f81576040517f08c379a0000000000000000000000000000000000000000000000000000000008152600401611f78906147fc565b60405180910390fd5b5f60065f8481526020019081526020015f205490505f60045f8581526020019081526020015f205490505f81118015611fb957505f82115b156120ff575f828285611fcc919061481a565b611fd69190614888565b90505f8111156120fd578060045f8781526020019081526020015f205f82825461200091906148b8565b925050819055508060055f8781526020019081526020015f205f3373ffffffffffffffffffffffffffffffffffffffff1673ffffffffffffffffffffffffffffffffffffffff1681526020019081526020015f205f8282546120629190614618565b925050819055503373ffffffffffffffffffffffffffffffffffffffff166108fc8290811502906040515f60405180830381858888f193505050501580156120ac573d5f803e3d5ffd5b503373ffffffffffffffffffffffffffffffffffffffff16857ffec539b3c42d74cd492c3ecf7966bf014b327beef98e935cdc3ec5e54a6901c7836040516120f49190613809565b60405180910390a35b505b50505050565b6004602052805f5260405f205f915090505481565b6121226136ab565b604051806101c001604052805f151581526020015f151581526020016001151581526020015f151581526020016001151581526020015f151581526020016001151581526020016001151581526020015f151581526020015f151581526020015f151581526020015f151581526020015f151581526020015f1515815250905090565b5f805f6121b5888888888861283b565b925092509250955095509592505050565b66038d7ea4c6800081565b6121d9612752565b6103e881111561221e576040517f08c379a000000000000000000000000000000000000000000000000000000000815260040161221590614935565b60405180910390fd5b5f600a54905081600a819055507ff579147a7a27652efe56a2f791890638acfb4625388b7c67846205588b4009fb818360405161225c929190614953565b60405180910390a15050565b600b602052805f5260405f205f915090505481565b7f000000000000000000000000000000000000000000000000000000000000000081565b5f7f000000000000000000000000000000000000000000000000000000000000000073ffffffffffffffffffffffffffffffffffffffff163373ffffffffffffffffffffffffffffffffffffffff1614612327576040517fae18210a00000000000000000000000000000000000000000000000000000000815260040160405180910390fd5b612332848484612b17565b90509392505050565b6007602052815f5260405f20602052805f5260405f205f91509150505481565b5f7f000000000000000000000000000000000000000000000000000000000000000073ffffffffffffffffffffffffffffffffffffffff163373ffffffffffffffffffffffffffffffffffffffff16146123e1576040517fae18210a00000000000000000000000000000000000000000000000000000000815260040160405180910390fd5b6123ef878787878787612b4a565b90509695505050505050565b61271081565b61012c81565b61240f612752565b5f73ffffffffffffffffffffffffffffffffffffffff168173ffffffffffffffffffffffffffffffffffffffff160361247d576040517f08c379a0000000000000000000000000000000000000000000000000000000008152600401612474906149c4565b60405180910390fd5b8060095f6101000a81548173ffffffffffffffffffffffffffffffffffffffff021916908373ffffffffffffffffffffffffffffffffffffffff16021790555050565b6124c8612752565b5f73ffffffffffffffffffffffffffffffffffffffff168173ffffffffffffffffffffffffffffffffffffffff1603612538575f6040517f1e4fbdf700000000000000000000000000000000000000000000000000000000815260040161252f9190613c77565b60405180910390fd5b6125418161298b565b50565b5f6125528686868686612683565b905095945050505050565b60025f5403612598576040517f3ee5aeb500000000000000000000000000000000000000000000000000000000815260040160405180910390fd5b60025f81905550565b60015f81905550565b5f806125c5868036038101906125c09190614b32565b612b7d565b90505f8560400135121561266f575f85604001356125e290614b5d565b90508060075f8481526020019081526020015f205f8a73ffffffffffffffffffffffffffffffffffffffff1673ffffffffffffffffffffffffffffffffffffffff1681526020019081526020015f205f82825461263f91906148b8565b925050819055508060065f8481526020019081526020015f205f82825461266691906148b8565b92505081905550505b6321d0ee7060e01b91505095945050505050565b5f8061269e868036038101906126999190614b32565b612b7d565b90505f8560400135131561273e57846040013560075f8381526020019081526020015f205f8973ffffffffffffffffffffffffffffffffffffffff1673ffffffffffffffffffffffffffffffffffffffff1681526020019081526020015f205f82825461270b9190614618565b92505081905550846040013560065f8381526020019081526020015f205f8282546127369190614618565b925050819055505b63259982e560e01b91505095945050505050565b61275a612b89565b73ffffffffffffffffffffffffffffffffffffffff16612778611c23565b73ffffffffffffffffffffffffffffffffffffffff16146127d75761279b612b89565b6040517f118cdaa70000000000000000000000000000000000000000000000000000000081526004016127ce9190613c77565b60405180910390fd5b565b6127e1612b90565b5f600160146101000a81548160ff0219169083151502179055507f5db9ee0a495bf2e6ff9c91a7834c1ba4fdd244a5e8aa4e537bd38aeae4b073aa612824612b89565b6040516128319190613c77565b60405180910390a1565b5f805f612846612bd0565b5f6128608880360381019061285b9190614b32565b612b7d565b905061286c8888612c11565b1561287b5761287a81612e2e565b5b63575e24b460e01b5f8093509350935050955095509592505050565b5f806040517f0a85dc2900000000000000000000000000000000000000000000000000000000815260040160405180910390fd5b5f805f6128e7888036038101906128e29190614b32565b612b7d565b90505f60025f8381526020019081526020015f205490505f801b811415801561292e575060035f8281526020019081526020015f2060030160019054906101000a900460ff165b1561293e5761293d8282612fed565b5b63b47b2fb160e01b5f935093505050965096945050505050565b5f6040517f0a85dc2900000000000000000000000000000000000000000000000000000000815260040160405180910390fd5b5f60015f9054906101000a900473ffffffffffffffffffffffffffffffffffffffff1690508160015f6101000a81548173ffffffffffffffffffffffffffffffffffffffff021916908373ffffffffffffffffffffffffffffffffffffffff1602179055508173ffffffffffffffffffffffffffffffffffffffff168173ffffffffffffffffffffffffffffffffffffffff167f8be0079c531659141344cd1fd0a4f28419497f9722a3daafe3b4186f6b6457e060405160405180910390a35050565b612a56612bd0565b60018060146101000a81548160ff0219169083151502179055507f62e78cea01bee320cd4e420270b5ea74000d11b0c9f74754ebdbfc544b05a258612a99612b89565b604051612aa69190613c77565b60405180910390a1565b5f806040517f0a85dc2900000000000000000000000000000000000000000000000000000000815260040160405180910390fd5b5f6040517f0a85dc2900000000000000000000000000000000000000000000000000000000815260040160405180910390fd5b5f6040517f0a85dc2900000000000000000000000000000000000000000000000000000000815260040160405180910390fd5b5f6040517f0a85dc2900000000000000000000000000000000000000000000000000000000815260040160405180910390fd5b5f60a082209050919050565b5f33905090565b612b98611561565b612bce576040517f8dfc202b00000000000000000000000000000000000000000000000000000000815260040160405180910390fd5b565b612bd8611561565b15612c0f576040517fd93c066500000000000000000000000000000000000000000000000000000000815260040160405180910390fd5b565b5f80612c1c846131b7565b90505f7f000000000000000000000000000000000000000000000000000000000000000073ffffffffffffffffffffffffffffffffffffffff1663ac41865a865f016020810190612c6d91906146dd565b876020016020810190612c8091906146dd565b6040518363ffffffff1660e01b8152600401612c9d929190614ba3565b602060405180830381865afa158015612cb8573d5f803e3d5ffd5b505050506040513d601f19601f82011682018060405250810190612cdc9190614bde565b90505f821480612ceb57505f81145b15612cfa575f92505050612e28565b5f81831115612d89575f82840390506127107fffffffffffffffffffffffffffffffffffffffffffffffffffffffffffffffff81612d3b57612d3a61485b565b5b04811115612d6b577fffffffffffffffffffffffffffffffffffffffffffffffffffffffffffffffff9150612d83565b82612710820281612d7f57612d7e61485b565b5b0491505b50612e0b565b5f83830390506127107fffffffffffffffffffffffffffffffffffffffffffffffffffffffffffffffff81612dc157612dc061485b565b5b04811115612df1577fffffffffffffffffffffffffffffffffffffffffffffffffffffffffffffffff9150612e09565b83612710820281612e0557612e0461485b565b5b0491505b505b600a548110158015612e225750612e2185613255565b5b93505050505b92915050565b5f801b60025f8381526020019081526020015f205403612fea575f814243604051602001612e5e93929190614c49565b604051602081830303815290604052805190602001209050604051806101000160405280838152602001428152602001600c81526020016001151581526020015f151581526020015f73ffffffffffffffffffffffffffffffffffffffff1681526020015f81526020015f81525060035f8381526020019081526020015f205f820151815f015560208201518160010155604082015181600201556060820151816003015f6101000a81548160ff02191690831515021790555060808201518160030160016101000a81548160ff02191690831515021790555060a08201518160030160026101000a81548173ffffffffffffffffffffffffffffffffffffffff021916908373ffffffffffffffffffffffffffffffffffffffff16021790555060c0820151816004015560e082015181600501559050508060025f8481526020019081526020015f208190555081817f8d50f1936786e8fcaf1a432bed2207696b5cc11646e7107f3e439f44546d848242600c604051612fe0929190614953565b60405180910390a3505b50565b5f60035f8381526020019081526020015f2090505f816004015490505f811115613199575f61271061213483613023919061481a565b61302d9190614888565b90505f6127106103e884613041919061481a565b61304b9190614888565b90505f61271061012c8561305f919061481a565b6130699190614888565b90508260045f8981526020019081526020015f205f82825461308b9190614618565b9250508190555061309c878461329a565b5f8211156130e9573373ffffffffffffffffffffffffffffffffffffffff166108fc8390811502906040515f60405180830381858888f193505050501580156130e7573d5f803e3d5ffd5b505b5f8111156131575760095f9054906101000a900473ffffffffffffffffffffffffffffffffffffffff1673ffffffffffffffffffffffffffffffffffffffff166108fc8290811502906040515f60405180830381858888f19350505050158015613155573d5f803e3d5ffd5b505b867f9f28cf522c1dd60442bfdecae6dfd5abc02b942618ef4f1e2fb7f3efdc8b4f458585858560405161318d9493929190614c85565b60405180910390a25050505b5f801b60025f8681526020019081526020015f208190555050505050565b5f80825f0160208101906131cb91906146dd565b8360200160208101906131de91906146dd565b8460400160208101906131f19190614732565b6040516020016132039392919061477d565b6040516020818303038152906040528051906020012090505f600b5f8381526020019081526020015f205490505f811115613242578092505050613250565b61324b846132c5565b925050505b919050565b5f670de0b6b3a76400008260200135138061329357507ffffffffffffffffffffffffffffffffffffffffffffffffff21f494c589c00008260200135125b9050919050565b8060045f8481526020019081526020015f205f8282546132ba9190614618565b925050819055505050565b5f806132d0836134bc565b90505f8173ffffffffffffffffffffffffffffffffffffffff16036133b4577f000000000000000000000000000000000000000000000000000000000000000073ffffffffffffffffffffffffffffffffffffffff1663ac41865a845f01602081019061333d91906146dd565b85602001602081019061335091906146dd565b6040518363ffffffff1660e01b815260040161336d929190614ba3565b602060405180830381865afa158015613388573d5f803e3d5ffd5b505050506040513d601f19601f820116820180604052508101906133ac9190614bde565b9150506134b7565b5f8173ffffffffffffffffffffffffffffffffffffffff1690505f817fffffffffffffffffffffffffffffffffffffffffffffffffffffffffffffffff816133ff576133fe61485b565b5b0482111561344357670de0b6b3a7640000633b9aca0083816134245761342361485b565b5b04633b9aca0084816134395761343861485b565b5b0402029050613457565b60c0670de0b6b3a764000083840202901c90505b613484855f01602081019061346c91906146dd565b86602001602081019061347f91906146dd565b6134c2565b156134b0575f8111156134af57806ec097ce7bc90715b34b9f10000000006134ac9190614888565b90505b5b8093505050505b919050565b5f919050565b5f808390505f8390505f73a0b86a33e6441c4c27d3f50c9d6d14bdf12f4e6e90505f73dac17f958d2ee523a2206206994597c13d831ec790505f736b175474e89094c44da98b954eedeac495271d0f90508273ffffffffffffffffffffffffffffffffffffffff168473ffffffffffffffffffffffffffffffffffffffff16148061357857508173ffffffffffffffffffffffffffffffffffffffff168473ffffffffffffffffffffffffffffffffffffffff16145b806135ae57508073ffffffffffffffffffffffffffffffffffffffff168473ffffffffffffffffffffffffffffffffffffffff16145b156135c0575f955050505050506136a5565b8273ffffffffffffffffffffffffffffffffffffffff168573ffffffffffffffffffffffffffffffffffffffff16148061362557508173ffffffffffffffffffffffffffffffffffffffff168573ffffffffffffffffffffffffffffffffffffffff16145b8061365b57508073ffffffffffffffffffffffffffffffffffffffff168573ffffffffffffffffffffffffffffffffffffffff16145b1561366e576001955050505050506136a5565b8373ffffffffffffffffffffffffffffffffffffffff168573ffffffffffffffffffffffffffffffffffffffff1610955050505050505b92915050565b604051806101c001604052805f151581526020015f151581526020015f151581526020015f151581526020015f151581526020015f151581526020015f151581526020015f151581526020015f151581526020015f151581526020015f151581526020015f151581526020015f151581526020015f151581525090565b5f604051905090565b5f80fd5b5f80fd5b5f73ffffffffffffffffffffffffffffffffffffffff82169050919050565b5f61376282613739565b9050919050565b61377281613758565b811461377c575f80fd5b50565b5f8135905061378d81613769565b92915050565b5f602082840312156137a8576137a7613731565b5b5f6137b58482850161377f565b91505092915050565b5f8115159050919050565b6137d2816137be565b82525050565b5f6020820190506137eb5f8301846137c9565b92915050565b5f819050919050565b613803816137f1565b82525050565b5f60208201905061381c5f8301846137fa565b92915050565b5f819050919050565b61383481613822565b811461383e575f80fd5b50565b5f8135905061384f8161382b565b92915050565b61385e816137f1565b8114613868575f80fd5b50565b5f8135905061387981613855565b92915050565b5f805f6060848603121561389657613895613731565b5b5f6138a386828701613841565b93505060206138b48682870161377f565b92505060406138c58682870161386b565b9150509250925092565b5f602082840312156138e4576138e3613731565b5b5f6138f184828501613841565b91505092915050565b5f61390482613822565b9050919050565b613914816138fa565b82525050565b61392381613758565b82525050565b5f6101008201905061393d5f83018b61390b565b61394a602083018a6137fa565b61395760408301896137fa565b61396460608301886137c9565b61397160808301876137c9565b61397e60a083018661391a565b61398b60c08301856137fa565b61399860e08301846137fa565b9998505050505050505050565b5f80fd5b5f60a082840312156139be576139bd6139a5565b5b81905092915050565b5f608082840312156139dc576139db6139a5565b5b81905092915050565b5f80fd5b5f80fd5b5f80fd5b5f8083601f840112613a0657613a056139e5565b5b8235905067ffffffffffffffff811115613a2357613a226139e9565b5b602083019150836001820283011115613a3f57613a3e6139ed565b5b9250929050565b5f805f805f6101608688031215613a6057613a5f613731565b5b5f613a6d8882890161377f565b9550506020613a7e888289016139a9565b94505060c0613a8f888289016139c7565b93505061014086013567ffffffffffffffff811115613ab157613ab0613735565b5b613abd888289016139f1565b92509250509295509295909350565b5f7fffffffff0000000000000000000000000000000000000000000000000000000082169050919050565b613b0081613acc565b82525050565b5f602082019050613b195f830184613af7565b92915050565b5f8060c08385031215613b3557613b34613731565b5b5f613b42858286016139a9565b92505060a0613b538582860161386b565b9150509250929050565b5f819050919050565b5f613b80613b7b613b7684613739565b613b5d565b613739565b9050919050565b5f613b9182613b66565b9050919050565b5f613ba282613b87565b9050919050565b613bb281613b98565b82525050565b5f602082019050613bcb5f830184613ba9565b92915050565b613bda81613822565b8114613be4575f80fd5b50565b5f81359050613bf581613bd1565b92915050565b5f8060408385031215613c1157613c10613731565b5b5f613c1e85828601613be7565b9250506020613c2f8582860161377f565b9150509250929050565b5f8060408385031215613c4f57613c4e613731565b5b5f613c5c85828601613be7565b9250506020613c6d8582860161386b565b9150509250929050565b5f602082019050613c8a5f83018461391a565b92915050565b5f8060408385031215613ca657613ca5613731565b5b5f613cb385828601613be7565b9250506020613cc485828601613841565b9150509250929050565b5f60208284031215613ce357613ce2613731565b5b5f613cf084828501613be7565b91505092915050565b613d0281613822565b82525050565b5f602082019050613d1b5f830184613cf9565b92915050565b5f60608284031215613d3657613d356139a5565b5b81905092915050565b5f805f805f6101408688031215613d5957613d58613731565b5b5f613d668882890161377f565b9550506020613d77888289016139a9565b94505060c0613d8888828901613d21565b93505061012086013567ffffffffffffffff811115613daa57613da9613735565b5b613db6888289016139f1565b92509250509295509295909350565b5f819050919050565b5f613de8613de3613dde84613dc5565b613b5d565b613dc5565b9050919050565b613df881613dce565b82525050565b5f62ffffff82169050919050565b613e1581613dfe565b82525050565b5f606082019050613e2e5f830186613af7565b613e3b6020830185613def565b613e486040830184613e0c565b949350505050565b5f613e5a82613b87565b9050919050565b613e6a81613e50565b82525050565b5f602082019050613e835f830184613e61565b92915050565b613e9281613dc5565b8114613e9c575f80fd5b50565b5f81359050613ead81613e89565b92915050565b5f805f805f805f6101a0888a031215613ecf57613ece613731565b5b5f613edc8a828b0161377f565b9750506020613eed8a828b016139a9565b96505060c0613efe8a828b016139c7565b955050610140613f108a828b01613e9f565b945050610160613f228a828b01613e9f565b93505061018088013567ffffffffffffffff811115613f4457613f43613735565b5b613f508a828b016139f1565b925092505092959891949750929550565b613f6a81613dce565b82525050565b5f604082019050613f835f830185613af7565b613f906020830184613f61565b9392505050565b5f805f805f806101608789031215613fb257613fb1613731565b5b5f613fbf89828a0161377f565b9650506020613fd089828a016139a9565b95505060c0613fe189828a01613d21565b945050610120613ff389828a01613e9f565b93505061014087013567ffffffffffffffff81111561401557614014613735565b5b61402189828a016139f1565b92509250509295509295509295565b5f81600f0b9050919050565b61404581614030565b82525050565b5f60408201905061405e5f830185613af7565b61406b602083018461403c565b9392505050565b61407b81613739565b8114614085575f80fd5b50565b5f8135905061409681614072565b92915050565b5f8160020b9050919050565b6140b18161409c565b81146140bb575f80fd5b50565b5f813590506140cc816140a8565b92915050565b5f805f8061010085870312156140eb576140ea613731565b5b5f6140f88782880161377f565b9450506020614109878288016139a9565b93505060c061411a87828801614088565b92505060e061412b878288016140be565b91505092959194509250565b5f805f6060848603121561414e5761414d613731565b5b5f61415b86828701613be7565b935050602061416c8682870161377f565b925050604061417d8682870161386b565b9150509250925092565b614190816137be565b811461419a575f80fd5b50565b5f813590506141ab81614187565b92915050565b5f805f805f8060c087890312156141cb576141ca613731565b5b5f6141d889828a01613be7565b96505060206141e989828a01613841565b95505060406141fa89828a0161386b565b945050606061420b89828a0161386b565b935050608061421c89828a0161419d565b92505060a061422d89828a0161419d565b9150509295509295509295565b5f80604083850312156142505761424f613731565b5b5f61425d8582860161377f565b925050602061426e8582860161419d565b9150509250929050565b5f805f805f80610120878903121561429357614292613731565b5b5f6142a089828a0161377f565b96505060206142b189828a016139a9565b95505060c06142c289828a0161386b565b94505060e06142d389828a0161386b565b93505061010087013567ffffffffffffffff8111156142f5576142f4613735565b5b61430189828a016139f1565b92509250509295509295509295565b614319816137be565b82525050565b6101c082015f8201516143345f850182614310565b5060208201516143476020850182614310565b50604082015161435a6040850182614310565b50606082015161436d6060850182614310565b5060808201516143806080850182614310565b5060a082015161439360a0850182614310565b5060c08201516143a660c0850182614310565b5060e08201516143b960e0850182614310565b506101008201516143ce610100850182614310565b506101208201516143e3610120850182614310565b506101408201516143f8610140850182614310565b5061016082015161440d610160850182614310565b50610180820151614422610180850182614310565b506101a08201516144376101a0850182614310565b50505050565b5f6101c0820190506144515f83018461431f565b92915050565b5f6020828403121561446c5761446b613731565b5b5f6144798482850161386b565b91505092915050565b5f61448c82613b87565b9050919050565b61449c81614482565b82525050565b5f6020820190506144b55f830184614493565b92915050565b5f805f60e084860312156144d2576144d1613731565b5b5f6144df8682870161377f565b93505060206144f0868287016139a9565b92505060c061450186828701614088565b9150509250925092565b5f82825260208201905092915050565b7f456967656e4c56523a20756e617574686f72697a6564206f70657261746f72005f82015250565b5f61454f601f8361450b565b915061455a8261451b565b602082019050919050565b5f6020820190508181035f83015261457c81614543565b9050919050565b7f456967656e4c56523a2061756374696f6e206e6f7420616374697665000000005f82015250565b5f6145b7601c8361450b565b91506145c282614583565b602082019050919050565b5f6020820190508181035f8301526145e4816145ab565b9050919050565b7f4e487b71000000000000000000000000000000000000000000000000000000005f52601160045260245ffd5b5f614622826137f1565b915061462d836137f1565b9250828201905080821115614645576146446145eb565b5b92915050565b7f456967656e4c56523a2061756374696f6e206e6f7420656e64656400000000005f82015250565b5f61467f601b8361450b565b915061468a8261464b565b602082019050919050565b5f6020820190508181035f8301526146ac81614673565b9050919050565b6146bc81613758565b81146146c6575f80fd5b50565b5f813590506146d7816146b3565b92915050565b5f602082840312156146f2576146f1613731565b5b5f6146ff848285016146c9565b91505092915050565b61471181613dfe565b811461471b575f80fd5b50565b5f8135905061472c81614708565b92915050565b5f6020828403121561474757614746613731565b5b5f6147548482850161471e565b91505092915050565b5f61476782613b87565b9050919050565b6147778161475d565b82525050565b5f6060820190506147905f83018661476e565b61479d602083018561476e565b6147aa6040830184613e0c565b949350505050565b7f456967656e4c56523a206e6f206c69717569646974792070726f7669646564005f82015250565b5f6147e6601f8361450b565b91506147f1826147b2565b602082019050919050565b5f6020820190508181035f830152614813816147da565b9050919050565b5f614824826137f1565b915061482f836137f1565b925082820261483d816137f1565b91508282048414831517614854576148536145eb565b5b5092915050565b7f4e487b71000000000000000000000000000000000000000000000000000000005f52601260045260245ffd5b5f614892826137f1565b915061489d836137f1565b9250826148ad576148ac61485b565b5b828204905092915050565b5f6148c2826137f1565b91506148cd836137f1565b92508282039050818111156148e5576148e46145eb565b5b92915050565b7f456967656e4c56523a207468726573686f6c6420746f6f2068696768000000005f82015250565b5f61491f601c8361450b565b915061492a826148eb565b602082019050919050565b5f6020820190508181035f83015261494c81614913565b9050919050565b5f6040820190506149665f8301856137fa565b61497360208301846137fa565b9392505050565b7f456967656e4c56523a20696e76616c69642061646472657373000000000000005f82015250565b5f6149ae60198361450b565b91506149b98261497a565b602082019050919050565b5f6020820190508181035f8301526149db816149a2565b9050919050565b5f80fd5b5f601f19601f8301169050919050565b7f4e487b71000000000000000000000000000000000000000000000000000000005f52604160045260245ffd5b614a2c826149e6565b810181811067ffffffffffffffff82111715614a4b57614a4a6149f6565b5b80604052505050565b5f614a5d613728565b9050614a698282614a23565b919050565b5f614a7882613758565b9050919050565b614a8881614a6e565b8114614a92575f80fd5b50565b5f81359050614aa381614a7f565b92915050565b5f60a08284031215614abe57614abd6149e2565b5b614ac860a0614a54565b90505f614ad7848285016146c9565b5f830152506020614aea848285016146c9565b6020830152506040614afe8482850161471e565b6040830152506060614b12848285016140be565b6060830152506080614b2684828501614a95565b60808301525092915050565b5f60a08284031215614b4757614b46613731565b5b5f614b5484828501614aa9565b91505092915050565b5f614b6782613dc5565b91507f80000000000000000000000000000000000000000000000000000000000000008203614b9957614b986145eb565b5b815f039050919050565b5f604082019050614bb65f83018561476e565b614bc3602083018461476e565b9392505050565b5f81519050614bd881613855565b92915050565b5f60208284031215614bf357614bf2613731565b5b5f614c0084828501614bca565b91505092915050565b5f819050919050565b614c23614c1e826138fa565b614c09565b82525050565b5f819050919050565b614c43614c3e826137f1565b614c29565b82525050565b5f614c548286614c12565b602082019150614c648285614c32565b602082019150614c748284614c32565b602082019150819050949350505050565b5f608082019050614c985f8301876137fa565b614ca560208301866137fa565b614cb260408301856137fa565b614cbf60608301846137fa565b9594505050505056fea26469706673582212208d363650df2b50b79318844205101dfa1999d62cd8fb099bad0c80eea442f47764736f6c634300081a0033","linkReferences":{}},"methodIdentifiers":{"AVS_REWARD_PERCENTAGE()":"1a8a61f3","BASIS_POINTS()":"e1f1c4a7","GAS_COMPENSATION_PERCENTAGE()":"2ae8c718","LP_REWARD_PERCENTAGE()":"b26565c5","MAX_AUCTION_DURATION()":"3fb35178","MIN_BID()":"ce69cd20","PROTOCOL_FEE_PERCENTAGE()":"e4d7d6dc","activeAuctions(bytes32)":"5498304c","afterAddLiquidity(address,(address,address,uint24,int24,address),(int24,int24,int256,bytes32),int256,int256,bytes)":"9f063efc","afterDonate(address,(address,address,uint24,int24,address),uint256,uint256,bytes)":"e1b4af69","afterInitialize(address,(address,address,uint24,int24,address),uint160,int24)":"6fe7e6eb","afterRemoveLiquidity(address,(address,address,uint24,int24,address),(int24,int24,int256,bytes32),int256,int256,bytes)":"6c2bbe7e","afterSwap(address,(address,address,uint24,int24,address),(bool,int256,uint160),int256,bytes)":"b47b2fb1","auctions(bytes32)":"1edbc5be","authorizedOperators(address)":"181d989b","avsDirectory()":"6b3aa72e","beforeAddLiquidity(address,(address,address,uint24,int24,address),(int24,int24,int256,bytes32),bytes)":"259982e5","beforeDonate(address,(address,address,uint24,int24,address),uint256,uint256,bytes)":"b6a8b0fa","beforeInitialize(address,(address,address,uint24,int24,address),uint160)":"dc98354e","beforeRemoveLiquidity(address,(address,address,uint24,int24,address),(int24,int24,int256,bytes32),bytes)":"21d0ee70","beforeSwap(address,(address,address,uint24,int24,address),(bool,int256,uint160),bytes)":"575e24b4","claimRewards(bytes32)":"7790ddc6","feeRecipient()":"46904840","getHookPermissions()":"c4e833ce","lpLiquidity(bytes32,address)":"dcd728b5","lpRewards(bytes32,address)":"44612456","lvrThreshold()":"af4cbe80","mockPoolPrices(bytes32)":"d5eab68d","owner()":"8da5cb5b","pause()":"8456cb59","paused()":"5c975abb","poolManager()":"dc4c90d3","poolRewards(bytes32)":"c0e8d384","priceOracle()":"2630c12f","renounceOwnership()":"715018a6","setFeeRecipient(address)":"e74b981b","setLVRThreshold(uint256)":"d40ea4d9","setMockPoolPrice((address,address,uint24,int24,address),uint256)":"2619b98a","setOperatorAuthorization(address,bool)":"a99e4087","submitAuctionResult(bytes32,address,uint256)":"1e52301c","testAfterSwap(address,(address,address,uint24,int24,address),(bool,int256,uint160),int256,bytes)":"6fac2187","testBeforeAddLiquidity(address,(address,address,uint24,int24,address),(int24,int24,int256,bytes32),bytes)":"f6afbb63","testBeforeRemoveLiquidity(address,(address,address,uint24,int24,address),(int24,int24,int256,bytes32),bytes)":"83b83aca","testBeforeSwap(address,(address,address,uint24,int24,address),(bool,int256,uint160),bytes)":"c8dc5568","testClaimRewards(bytes32)":"ba651620","testCreateAuction(bytes32,bytes32,uint256,uint256,bool,bool)":"872edadc","testSetActiveAuction(bytes32,bytes32)":"4b2328e8","testSetLpLiquidity(bytes32,address,uint256)":"726b0114","testSetPoolRewards(bytes32,uint256)":"835c1a52","testSetTotalLiquidity(bytes32,uint256)":"44a32bff","testSubmitAuctionResult(bytes32,address,uint256)":"7f98978c","testSubmitAuctionResultWithTimingCheck(bytes32,address,uint256)":"274b5f46","totalLiquidity(bytes32)":"54b7a8f7","transferOwnership(address)":"f2fde38b","unpause()":"3f4ba83a"},"id":97}